{
  "contractName": "Customs",
  "abi": [
    {
      "constant": true,
      "inputs": [
        {
          "internalType": "address",
          "name": "",
          "type": "address"
        },
        {
          "internalType": "uint256",
          "name": "",
          "type": "uint256"
        }
      ],
      "name": "personToHistory",
      "outputs": [
        {
          "components": [
            {
              "internalType": "string",
              "name": "name",
              "type": "string"
            },
            {
              "internalType": "string",
              "name": "country",
              "type": "string"
            }
          ],
          "internalType": "struct Customs.City",
          "name": "from",
          "type": "tuple"
        },
        {
          "components": [
            {
              "internalType": "string",
              "name": "name",
              "type": "string"
            },
            {
              "internalType": "string",
              "name": "country",
              "type": "string"
            }
          ],
          "internalType": "struct Customs.City",
          "name": "to",
          "type": "tuple"
        },
        {
          "internalType": "uint64",
          "name": "date",
          "type": "uint64"
        },
        {
          "internalType": "bool",
          "name": "success",
          "type": "bool"
        }
      ],
      "payable": false,
      "stateMutability": "view",
      "type": "function"
    },
    {
      "constant": false,
      "inputs": [
        {
          "internalType": "string",
          "name": "_fromCity",
          "type": "string"
        },
        {
          "internalType": "string",
          "name": "_fromCountry",
          "type": "string"
        },
        {
          "internalType": "string",
          "name": "_toCity",
          "type": "string"
        },
        {
          "internalType": "string",
          "name": "_toCountry",
          "type": "string"
        }
      ],
      "name": "crossBorder",
      "outputs": [],
      "payable": false,
      "stateMutability": "nonpayable",
      "type": "function"
    },
    {
      "constant": true,
      "inputs": [
        {
          "internalType": "address",
          "name": "userAddress",
          "type": "address"
        }
      ],
      "name": "getValueAtHistoryMapping",
      "outputs": [
        {
          "components": [
            {
              "components": [
                {
                  "internalType": "string",
                  "name": "name",
                  "type": "string"
                },
                {
                  "internalType": "string",
                  "name": "country",
                  "type": "string"
                }
              ],
              "internalType": "struct Customs.City",
              "name": "from",
              "type": "tuple"
            },
            {
              "components": [
                {
                  "internalType": "string",
                  "name": "name",
                  "type": "string"
                },
                {
                  "internalType": "string",
                  "name": "country",
                  "type": "string"
                }
              ],
              "internalType": "struct Customs.City",
              "name": "to",
              "type": "tuple"
            },
            {
              "internalType": "uint64",
              "name": "date",
              "type": "uint64"
            },
            {
              "internalType": "bool",
              "name": "success",
              "type": "bool"
            }
          ],
          "internalType": "struct Customs.Trip[]",
          "name": "",
          "type": "tuple[]"
        }
      ],
      "payable": false,
      "stateMutability": "view",
      "type": "function"
    }
  ],
  "bytecode": "0x608060405234801561001057600080fd5b50610f85806100206000396000f3fe608060405234801561001057600080fd5b50600436106100415760003560e01c80634b89570414610046578063ca6ad14214610076578063e924f9b8146100a9575b600080fd5b610060600480360361005b9190810190610a2a565b6100c5565b60405161006d9190610d42565b60405180910390f35b610090600480360361008b9190810190610a53565b61045f565b6040516100a09493929190610d64565b60405180910390f35b6100c360048036036100be9190810190610a8f565b610766565b005b60606000808373ffffffffffffffffffffffffffffffffffffffff1673ffffffffffffffffffffffffffffffffffffffff168152602001908152602001600020805480602002602001604051908101604052809291908181526020016000905b82821015610454578382906000526020600020906005020160405180608001604052908160008201604051806040016040529081600082018054600181600116156101000203166002900480601f0160208091040260200160405190810160405280929190818152602001828054600181600116156101000203166002900480156101f15780601f106101c6576101008083540402835291602001916101f1565b820191906000526020600020905b8154815290600101906020018083116101d457829003601f168201915b50505050508152602001600182018054600181600116156101000203166002900480601f0160208091040260200160405190810160405280929190818152602001828054600181600116156101000203166002900480156102935780601f1061026857610100808354040283529160200191610293565b820191906000526020600020905b81548152906001019060200180831161027657829003601f168201915b505050505081525050815260200160028201604051806040016040529081600082018054600181600116156101000203166002900480601f0160208091040260200160405190810160405280929190818152602001828054600181600116156101000203166002900480156103495780601f1061031e57610100808354040283529160200191610349565b820191906000526020600020905b81548152906001019060200180831161032c57829003601f168201915b50505050508152602001600182018054600181600116156101000203166002900480601f0160208091040260200160405190810160405280929190818152602001828054600181600116156101000203166002900480156103eb5780601f106103c0576101008083540402835291602001916103eb565b820191906000526020600020905b8154815290600101906020018083116103ce57829003601f168201915b50505050508152505081526020016004820160009054906101000a900467ffffffffffffffff1667ffffffffffffffff1667ffffffffffffffff1681526020016004820160089054906101000a900460ff16151515158152505081526020019060010190610125565b505050509050919050565b6000602052816000526040600020818154811061047857fe5b90600052602060002090600502016000915091505080600001604051806040016040529081600082018054600181600116156101000203166002900480601f0160208091040260200160405190810160405280929190818152602001828054600181600116156101000203166002900480156105355780601f1061050a57610100808354040283529160200191610535565b820191906000526020600020905b81548152906001019060200180831161051857829003601f168201915b50505050508152602001600182018054600181600116156101000203166002900480601f0160208091040260200160405190810160405280929190818152602001828054600181600116156101000203166002900480156105d75780601f106105ac576101008083540402835291602001916105d7565b820191906000526020600020905b8154815290600101906020018083116105ba57829003601f168201915b5050505050815250509080600201604051806040016040529081600082018054600181600116156101000203166002900480601f0160208091040260200160405190810160405280929190818152602001828054600181600116156101000203166002900480156106895780601f1061065e57610100808354040283529160200191610689565b820191906000526020600020905b81548152906001019060200180831161066c57829003601f168201915b50505050508152602001600182018054600181600116156101000203166002900480601f01602080910402602001604051908101604052809291908181526020018280546001816001161561010002031660029004801561072b5780601f106107005761010080835404028352916020019161072b565b820191906000526020600020905b81548152906001019060200180831161070e57829003601f168201915b505050505081525050908060040160009054906101000a900467ffffffffffffffff16908060040160089054906101000a900460ff16905084565b6000803373ffffffffffffffffffffffffffffffffffffffff1673ffffffffffffffffffffffffffffffffffffffff1681526020019081526020016000206040518060800160405280604051806040016040528088815260200187815250815260200160405180604001604052808681526020018581525081526020014267ffffffffffffffff1681526020016001151581525090806001815401808255809150509060018203906000526020600020906005020160009091929091909150600082015181600001600082015181600001908051906020019061084a929190610907565b506020820151816001019080519060200190610867929190610907565b505050602082015181600201600082015181600001908051906020019061088f929190610907565b5060208201518160010190805190602001906108ac929190610907565b50505060408201518160040160006101000a81548167ffffffffffffffff021916908367ffffffffffffffff16021790555060608201518160040160086101000a81548160ff02191690831515021790555050505050505050565b828054600181600116156101000203166002900490600052602060002090601f016020900481019282601f1061094857805160ff1916838001178555610976565b82800160010185558215610976579182015b8281111561097557825182559160200191906001019061095a565b5b5090506109839190610987565b5090565b6109a991905b808211156109a557600081600090555060010161098d565b5090565b90565b6000813590506109bb81610f14565b92915050565b600082601f8301126109d257600080fd5b81356109e56109e082610de4565b610db7565b91508082526020830160208301858383011115610a0157600080fd5b610a0c838284610ec1565b50505092915050565b600081359050610a2481610f2b565b92915050565b600060208284031215610a3c57600080fd5b6000610a4a848285016109ac565b91505092915050565b60008060408385031215610a6657600080fd5b6000610a74858286016109ac565b9250506020610a8585828601610a15565b9150509250929050565b60008060008060808587031215610aa557600080fd5b600085013567ffffffffffffffff811115610abf57600080fd5b610acb878288016109c1565b945050602085013567ffffffffffffffff811115610ae857600080fd5b610af4878288016109c1565b935050604085013567ffffffffffffffff811115610b1157600080fd5b610b1d878288016109c1565b925050606085013567ffffffffffffffff811115610b3a57600080fd5b610b46878288016109c1565b91505092959194509250565b6000610b5e8383610cba565b905092915050565b6000610b7182610e20565b610b7b8185610e43565b935083602082028501610b8d85610e10565b8060005b85811015610bc95784840389528151610baa8582610b52565b9450610bb583610e36565b925060208a01995050600181019050610b91565b50829750879550505050505092915050565b610be481610e77565b82525050565b610bf381610e77565b82525050565b6000610c0482610e2b565b610c0e8185610e54565b9350610c1e818560208601610ed0565b610c2781610f03565b840191505092915050565b60006040830160008301518482036000860152610c4f8282610bf9565b91505060208301518482036020860152610c698282610bf9565b9150508091505092915050565b60006040830160008301518482036000860152610c938282610bf9565b91505060208301518482036020860152610cad8282610bf9565b9150508091505092915050565b60006080830160008301518482036000860152610cd78282610c32565b91505060208301518482036020860152610cf18282610c32565b9150506040830151610d066040860182610d24565b506060830151610d196060860182610bdb565b508091505092915050565b610d2d81610ead565b82525050565b610d3c81610ead565b82525050565b60006020820190508181036000830152610d5c8184610b66565b905092915050565b60006080820190508181036000830152610d7e8187610c76565b90508181036020830152610d928186610c76565b9050610da16040830185610d33565b610dae6060830184610bea565b95945050505050565b6000604051905081810181811067ffffffffffffffff82111715610dda57600080fd5b8060405250919050565b600067ffffffffffffffff821115610dfb57600080fd5b601f19601f8301169050602081019050919050565b6000819050602082019050919050565b600081519050919050565b600081519050919050565b6000602082019050919050565b600082825260208201905092915050565b600082825260208201905092915050565b6000610e7082610e83565b9050919050565b60008115159050919050565b600073ffffffffffffffffffffffffffffffffffffffff82169050919050565b6000819050919050565b600067ffffffffffffffff82169050919050565b82818337600083830152505050565b60005b83811015610eee578082015181840152602081019050610ed3565b83811115610efd576000848401525b50505050565b6000601f19601f8301169050919050565b610f1d81610e65565b8114610f2857600080fd5b50565b610f3481610ea3565b8114610f3f57600080fd5b5056fea365627a7a723158201e5d5cdcd86970e4888d35162ea782dc74057a6e6b97f7fd9e5c07807d6e68bd6c6578706572696d656e74616cf564736f6c63430005100040",
  "source": "// SPDX-License-Identifier: MIT\r\npragma experimental ABIEncoderV2;\r\npragma solidity >=0.4.22 <0.9.0;\r\n\r\ncontract Customs {\r\n    struct Trip {\r\n        City from;\r\n        City to;\r\n        uint64 date;\r\n        bool success;\r\n    }\r\n\r\n    struct City {\r\n        string name;\r\n        string country;\r\n    }\r\n\r\n    mapping(address => Trip[]) public personToHistory;\r\n\r\n    function crossBorder(\r\n        string memory _fromCity,\r\n        string memory _fromCountry,\r\n        string memory _toCity,\r\n        string memory _toCountry) public {\r\n        personToHistory[msg.sender].push(\r\n            Trip(\r\n                City(_fromCity, _fromCountry), \r\n                City(_toCity, _toCountry), \r\n                uint64(block.timestamp), \r\n                true\r\n            )\r\n        );\r\n    }\r\n\r\n    function getValueAtHistoryMapping(address userAddress) public view returns (Trip[] memory) {\r\n        return personToHistory[userAddress];\r\n    }\r\n\r\n    /*function _isCrossingAllowed(address _user) private pure returns (bool) {\r\n        return true;\r\n    }*/\r\n}\r\n",
  "sourcePath": "C:\\Users\\Volodymyr\\Documents\\dTourist\\contracts\\Customs.sol",
  "compiler": {
    "name": "solc",
    "version": "0.5.16+commit.9c3226ce.Emscripten.clang"
  },
  "schemaVersion": "3.4.3",
  "updatedAt": "2022-01-08T17:54:47.164Z",
  "networkType": "ethereum",
  "devdoc": {
    "methods": {}
  },
  "userdoc": {
    "methods": {}
  }
}