{
  "contractName": "Customs",
  "abi": [
    {
      "inputs": [
        {
          "internalType": "address",
          "name": "_insuranceAddress",
          "type": "address"
        }
      ],
      "stateMutability": "nonpayable",
      "type": "constructor"
    },
    {
      "anonymous": false,
      "inputs": [
        {
          "indexed": true,
          "internalType": "address",
          "name": "previousOwner",
          "type": "address"
        },
        {
          "indexed": true,
          "internalType": "address",
          "name": "newOwner",
          "type": "address"
        }
      ],
      "name": "OwnershipTransferred",
      "type": "event"
    },
    {
      "anonymous": false,
      "inputs": [
        {
          "indexed": false,
          "internalType": "bool",
          "name": "success",
          "type": "bool"
        },
        {
          "indexed": false,
          "internalType": "string",
          "name": "message",
          "type": "string"
        }
      ],
      "name": "TravelerDataProcessed",
      "type": "event"
    },
    {
      "inputs": [],
      "name": "owner",
      "outputs": [
        {
          "internalType": "address",
          "name": "",
          "type": "address"
        }
      ],
      "stateMutability": "view",
      "type": "function",
      "constant": true
    },
    {
      "inputs": [],
      "name": "renounceOwnership",
      "outputs": [],
      "stateMutability": "nonpayable",
      "type": "function"
    },
    {
      "inputs": [
        {
          "internalType": "address",
          "name": "newOwner",
          "type": "address"
        }
      ],
      "name": "transferOwnership",
      "outputs": [],
      "stateMutability": "nonpayable",
      "type": "function"
    },
    {
      "inputs": [
        {
          "internalType": "string",
          "name": "_fromCity",
          "type": "string"
        },
        {
          "internalType": "string",
          "name": "_fromCountry",
          "type": "string"
        },
        {
          "internalType": "string",
          "name": "_toCity",
          "type": "string"
        },
        {
          "internalType": "string",
          "name": "_toCountry",
          "type": "string"
        }
      ],
      "name": "crossBorder",
      "outputs": [],
      "stateMutability": "nonpayable",
      "type": "function"
    },
    {
      "inputs": [
        {
          "internalType": "address",
          "name": "_address",
          "type": "address"
        }
      ],
      "name": "setInsuranceContractAddress",
      "outputs": [],
      "stateMutability": "nonpayable",
      "type": "function"
    },
    {
      "inputs": [
        {
          "internalType": "address",
          "name": "userAddress",
          "type": "address"
        }
      ],
      "name": "getValueAtHistoryMapping",
      "outputs": [
        {
          "components": [
            {
              "components": [
                {
                  "internalType": "string",
                  "name": "name",
                  "type": "string"
                },
                {
                  "internalType": "string",
                  "name": "country",
                  "type": "string"
                }
              ],
              "internalType": "struct Customs.City",
              "name": "from",
              "type": "tuple"
            },
            {
              "components": [
                {
                  "internalType": "string",
                  "name": "name",
                  "type": "string"
                },
                {
                  "internalType": "string",
                  "name": "country",
                  "type": "string"
                }
              ],
              "internalType": "struct Customs.City",
              "name": "to",
              "type": "tuple"
            },
            {
              "internalType": "uint64",
              "name": "date",
              "type": "uint64"
            },
            {
              "internalType": "bool",
              "name": "success",
              "type": "bool"
            }
          ],
          "internalType": "struct Customs.Trip[]",
          "name": "",
          "type": "tuple[]"
        }
      ],
      "stateMutability": "view",
      "type": "function",
      "constant": true
    }
  ],
  "bytecode": "0x60806040523480156200001157600080fd5b506040516200148b3803806200148b833981810160405281019062000037919062000182565b620000576200004b6200009f60201b60201c565b620000a760201b60201c565b80600160006101000a81548173ffffffffffffffffffffffffffffffffffffffff021916908373ffffffffffffffffffffffffffffffffffffffff16021790555050620001fc565b600033905090565b60008060009054906101000a900473ffffffffffffffffffffffffffffffffffffffff169050816000806101000a81548173ffffffffffffffffffffffffffffffffffffffff021916908373ffffffffffffffffffffffffffffffffffffffff1602179055508173ffffffffffffffffffffffffffffffffffffffff168173ffffffffffffffffffffffffffffffffffffffff167f8be0079c531659141344cd1fd0a4f28419497f9722a3daafe3b4186f6b6457e060405160405180910390a35050565b6000815190506200017c81620001e2565b92915050565b6000602082840312156200019557600080fd5b6000620001a5848285016200016b565b91505092915050565b6000620001bb82620001c2565b9050919050565b600073ffffffffffffffffffffffffffffffffffffffff82169050919050565b620001ed81620001ae565b8114620001f957600080fd5b50565b61127f806200020c6000396000f3fe608060405234801561001057600080fd5b50600436106100625760003560e01c80634b895704146100675780636df32cd414610097578063715018a6146100b35780638da5cb5b146100bd578063e924f9b8146100db578063f2fde38b146100f7575b600080fd5b610081600480360381019061007c9190610b79565b610113565b60405161008e9190610ebe565b60405180910390f35b6100b160048036038101906100ac9190610b79565b61046e565b005b6100bb61052e565b005b6100c56105b6565b6040516100d29190610ea3565b60405180910390f35b6100f560048036038101906100f09190610ba2565b6105df565b005b610111600480360381019061010c9190610b79565b6107c5565b005b6060600260008373ffffffffffffffffffffffffffffffffffffffff1673ffffffffffffffffffffffffffffffffffffffff168152602001908152602001600020805480602002602001604051908101604052809291908181526020016000905b828210156104635783829060005260206000209060050201604051806080016040529081600082016040518060400160405290816000820180546101b7906110a8565b80601f01602080910402602001604051908101604052809291908181526020018280546101e3906110a8565b80156102305780601f1061020557610100808354040283529160200191610230565b820191906000526020600020905b81548152906001019060200180831161021357829003601f168201915b50505050508152602001600182018054610249906110a8565b80601f0160208091040260200160405190810160405280929190818152602001828054610275906110a8565b80156102c25780601f10610297576101008083540402835291602001916102c2565b820191906000526020600020905b8154815290600101906020018083116102a557829003601f168201915b5050505050815250508152602001600282016040518060400160405290816000820180546102ef906110a8565b80601f016020809104026020016040519081016040528092919081815260200182805461031b906110a8565b80156103685780601f1061033d57610100808354040283529160200191610368565b820191906000526020600020905b81548152906001019060200180831161034b57829003601f168201915b50505050508152602001600182018054610381906110a8565b80601f01602080910402602001604051908101604052809291908181526020018280546103ad906110a8565b80156103fa5780601f106103cf576101008083540402835291602001916103fa565b820191906000526020600020905b8154815290600101906020018083116103dd57829003601f168201915b50505050508152505081526020016004820160009054906101000a900467ffffffffffffffff1667ffffffffffffffff1667ffffffffffffffff1681526020016004820160089054906101000a900460ff16151515158152505081526020019060010190610174565b505050509050919050565b6104766108bd565b73ffffffffffffffffffffffffffffffffffffffff166104946105b6565b73ffffffffffffffffffffffffffffffffffffffff16146104ea576040517f08c379a00000000000000000000000000000000000000000000000000000000081526004016104e190610f2e565b60405180910390fd5b80600160006101000a81548173ffffffffffffffffffffffffffffffffffffffff021916908373ffffffffffffffffffffffffffffffffffffffff16021790555050565b6105366108bd565b73ffffffffffffffffffffffffffffffffffffffff166105546105b6565b73ffffffffffffffffffffffffffffffffffffffff16146105aa576040517f08c379a00000000000000000000000000000000000000000000000000000000081526004016105a190610f2e565b60405180910390fd5b6105b460006108c5565b565b60008060009054906101000a900473ffffffffffffffffffffffffffffffffffffffff16905090565b6105e833610989565b1561078757600260003373ffffffffffffffffffffffffffffffffffffffff1673ffffffffffffffffffffffffffffffffffffffff1681526020019081526020016000206040518060800160405280604051806040016040528088815260200187815250815260200160405180604001604052808681526020018581525081526020014267ffffffffffffffff16815260200160011515815250908060018154018082558091505060019003906000526020600020906005020160009091909190915060008201518160000160008201518160000190805190602001906106d0929190610a44565b5060208201518160010190805190602001906106ed929190610a44565b5050506020820151816002016000820151816000019080519060200190610715929190610a44565b506020820151816001019080519060200190610732929190610a44565b50505060408201518160040160006101000a81548167ffffffffffffffff021916908367ffffffffffffffff16021790555060608201518160040160086101000a81548160ff02191690831515021790555050505b7f5f245140e6a58e4e1571f8cf8b0ee811e0c59120ece8b5054cafa69de3b1b52060016040516107b79190610ee0565b60405180910390a150505050565b6107cd6108bd565b73ffffffffffffffffffffffffffffffffffffffff166107eb6105b6565b73ffffffffffffffffffffffffffffffffffffffff1614610841576040517f08c379a000000000000000000000000000000000000000000000000000000000815260040161083890610f2e565b60405180910390fd5b600073ffffffffffffffffffffffffffffffffffffffff168173ffffffffffffffffffffffffffffffffffffffff1614156108b1576040517f08c379a00000000000000000000000000000000000000000000000000000000081526004016108a890610f0e565b60405180910390fd5b6108ba816108c5565b50565b600033905090565b60008060009054906101000a900473ffffffffffffffffffffffffffffffffffffffff169050816000806101000a81548173ffffffffffffffffffffffffffffffffffffffff021916908373ffffffffffffffffffffffffffffffffffffffff1602179055508173ffffffffffffffffffffffffffffffffffffffff168173ffffffffffffffffffffffffffffffffffffffff167f8be0079c531659141344cd1fd0a4f28419497f9722a3daafe3b4186f6b6457e060405160405180910390a35050565b600080600160009054906101000a900473ffffffffffffffffffffffffffffffffffffffff1673ffffffffffffffffffffffffffffffffffffffff16633f1c55fc846040518263ffffffff1660e01b81526004016109e79190610ea3565b60206040518083038186803b1580156109ff57600080fd5b505afa158015610a13573d6000803e3d6000fd5b505050506040513d601f19601f82011682018060405250810190610a379190610c65565b9050428111915050919050565b828054610a50906110a8565b90600052602060002090601f016020900481019282610a725760008555610ab9565b82601f10610a8b57805160ff1916838001178555610ab9565b82800160010185558215610ab9579182015b82811115610ab8578251825591602001919060010190610a9d565b5b509050610ac69190610aca565b5090565b5b80821115610ae3576000816000905550600101610acb565b5090565b6000610afa610af584610f73565b610f4e565b905082815260208101848484011115610b1257600080fd5b610b1d848285611066565b509392505050565b600081359050610b348161121b565b92915050565b600082601f830112610b4b57600080fd5b8135610b5b848260208601610ae7565b91505092915050565b600081519050610b7381611232565b92915050565b600060208284031215610b8b57600080fd5b6000610b9984828501610b25565b91505092915050565b60008060008060808587031215610bb857600080fd5b600085013567ffffffffffffffff811115610bd257600080fd5b610bde87828801610b3a565b945050602085013567ffffffffffffffff811115610bfb57600080fd5b610c0787828801610b3a565b935050604085013567ffffffffffffffff811115610c2457600080fd5b610c3087828801610b3a565b925050606085013567ffffffffffffffff811115610c4d57600080fd5b610c5987828801610b3a565b91505092959194509250565b600060208284031215610c7757600080fd5b6000610c8584828501610b64565b91505092915050565b6000610c9a8383610e2a565b905092915050565b610cab8161100a565b82525050565b6000610cbc82610fb4565b610cc68185610fd7565b935083602082028501610cd885610fa4565b8060005b85811015610d145784840389528151610cf58582610c8e565b9450610d0083610fca565b925060208a01995050600181019050610cdc565b50829750879550505050505092915050565b610d2f8161101c565b82525050565b610d3e8161101c565b82525050565b6000610d4f82610fbf565b610d598185610fe8565b9350610d69818560208601611075565b610d7281611169565b840191505092915050565b6000610d8a602683610ff9565b9150610d958261117a565b604082019050919050565b6000610dad601a83610ff9565b9150610db8826111c9565b602082019050919050565b6000610dd0602083610ff9565b9150610ddb826111f2565b602082019050919050565b60006040830160008301518482036000860152610e038282610d44565b91505060208301518482036020860152610e1d8282610d44565b9150508091505092915050565b60006080830160008301518482036000860152610e478282610de6565b91505060208301518482036020860152610e618282610de6565b9150506040830151610e766040860182610e94565b506060830151610e896060860182610d26565b508091505092915050565b610e9d81611052565b82525050565b6000602082019050610eb86000830184610ca2565b92915050565b60006020820190508181036000830152610ed88184610cb1565b905092915050565b6000604082019050610ef56000830184610d35565b8181036020830152610f0681610da0565b905092915050565b60006020820190508181036000830152610f2781610d7d565b9050919050565b60006020820190508181036000830152610f4781610dc3565b9050919050565b6000610f58610f69565b9050610f6482826110da565b919050565b6000604051905090565b600067ffffffffffffffff821115610f8e57610f8d61113a565b5b610f9782611169565b9050602081019050919050565b6000819050602082019050919050565b600081519050919050565b600081519050919050565b6000602082019050919050565b600082825260208201905092915050565b600082825260208201905092915050565b600082825260208201905092915050565b600061101582611028565b9050919050565b60008115159050919050565b600073ffffffffffffffffffffffffffffffffffffffff82169050919050565b6000819050919050565b600067ffffffffffffffff82169050919050565b82818337600083830152505050565b60005b83811015611093578082015181840152602081019050611078565b838111156110a2576000848401525b50505050565b600060028204905060018216806110c057607f821691505b602082108114156110d4576110d361110b565b5b50919050565b6110e382611169565b810181811067ffffffffffffffff821117156111025761110161113a565b5b80604052505050565b7f4e487b7100000000000000000000000000000000000000000000000000000000600052602260045260246000fd5b7f4e487b7100000000000000000000000000000000000000000000000000000000600052604160045260246000fd5b6000601f19601f8301169050919050565b7f4f776e61626c653a206e6577206f776e657220697320746865207a65726f206160008201527f6464726573730000000000000000000000000000000000000000000000000000602082015250565b7f426f726465722063726f7373696e6720697320616c6c6f776564000000000000600082015250565b7f4f776e61626c653a2063616c6c6572206973206e6f7420746865206f776e6572600082015250565b6112248161100a565b811461122f57600080fd5b50565b61123b81611048565b811461124657600080fd5b5056fea26469706673582212202d6ceb2874f083e5ac5bc9dda147aef16e38630777f58d4bd2408176d7f6fd6964736f6c63430008020033",
  "immutableReferences": {},
  "source": "// SPDX-License-Identifier: MIT\r\npragma experimental ABIEncoderV2;\r\npragma solidity >=0.4.22 <0.9.0;\r\n\r\nimport \"@openzeppelin/contracts/access/Ownable.sol\";\r\n\r\ncontract Customs is Ownable {\r\n    event TravelerDataProcessed(bool success, string message);\r\n\r\n    InsuranceInterface insuranceContract;\r\n\r\n    struct Trip {\r\n        City from;\r\n        City to;\r\n        uint64 date;\r\n        bool success;\r\n    }\r\n\r\n    struct City {\r\n        string name;\r\n        string country;\r\n    }\r\n\r\n    mapping(address => Trip[]) personToHistory;\r\n\r\n    constructor(address _insuranceAddress) {\r\n        insuranceContract = InsuranceInterface(_insuranceAddress);\r\n    }\r\n\r\n    function crossBorder(\r\n        string memory _fromCity,\r\n        string memory _fromCountry,\r\n        string memory _toCity,\r\n        string memory _toCountry) external {\r\n            if (isInsuranceUpToDate(msg.sender)) {\r\n                personToHistory[msg.sender].push(\r\n                    Trip(\r\n                        City(_fromCity, _fromCountry), \r\n                        City(_toCity, _toCountry), \r\n                        uint64(block.timestamp), \r\n                        true\r\n                    )\r\n                );\r\n            }\r\n\r\n            emit TravelerDataProcessed(true, \"Border crossing is allowed\");\r\n    }\r\n\r\n    function setInsuranceContractAddress(address _address) external onlyOwner {\r\n        insuranceContract = InsuranceInterface(_address);\r\n    }\r\n\r\n    function isInsuranceUpToDate(address _person) private view returns (bool) {\r\n        uint expiryDate = insuranceContract.getInsuranceInfo(_person);\r\n\r\n        return expiryDate > block.timestamp;\r\n    }\r\n\r\n    function getValueAtHistoryMapping(address userAddress) public view returns (Trip[] memory) {\r\n        return personToHistory[userAddress];\r\n    }\r\n}\r\n\r\ninterface InsuranceInterface {\r\n    function getInsuranceInfo(address _person) external view returns (\r\n        uint expipryDate\r\n    );\r\n}",
  "sourcePath": "C:\\Users\\Volodymyr\\Documents\\dTourist\\contracts\\Customs.sol",
  "compiler": {
    "name": "solc",
    "version": "0.8.2+commit.661d1103.Emscripten.clang"
  },
  "schemaVersion": "3.4.3",
  "updatedAt": "2022-01-27T20:11:24.541Z",
  "networkType": "ethereum",
  "devdoc": {
    "kind": "dev",
    "methods": {
      "owner()": {
        "details": "Returns the address of the current owner."
      },
      "renounceOwnership()": {
        "details": "Leaves the contract without owner. It will not be possible to call `onlyOwner` functions anymore. Can only be called by the current owner. NOTE: Renouncing ownership will leave the contract without an owner, thereby removing any functionality that is only available to the owner."
      },
      "transferOwnership(address)": {
        "details": "Transfers ownership of the contract to a new account (`newOwner`). Can only be called by the current owner."
      }
    },
    "version": 1
  },
  "userdoc": {
    "kind": "user",
    "methods": {},
    "version": 1
  }
}