{
  "contractName": "Customs",
  "abi": [
    {
      "inputs": [
        {
          "internalType": "address",
          "name": "_insuranceAddress",
          "type": "address"
        }
      ],
      "stateMutability": "nonpayable",
      "type": "constructor"
    },
    {
      "anonymous": false,
      "inputs": [
        {
          "indexed": true,
          "internalType": "address",
          "name": "previousOwner",
          "type": "address"
        },
        {
          "indexed": true,
          "internalType": "address",
          "name": "newOwner",
          "type": "address"
        }
      ],
      "name": "OwnershipTransferred",
      "type": "event"
    },
    {
      "anonymous": false,
      "inputs": [
        {
          "indexed": false,
          "internalType": "bool",
          "name": "success",
          "type": "bool"
        },
        {
          "indexed": false,
          "internalType": "string",
          "name": "message",
          "type": "string"
        },
        {
          "components": [
            {
              "components": [
                {
                  "internalType": "string",
                  "name": "name",
                  "type": "string"
                },
                {
                  "internalType": "string",
                  "name": "country",
                  "type": "string"
                }
              ],
              "internalType": "struct Customs.City",
              "name": "from",
              "type": "tuple"
            },
            {
              "components": [
                {
                  "internalType": "string",
                  "name": "name",
                  "type": "string"
                },
                {
                  "internalType": "string",
                  "name": "country",
                  "type": "string"
                }
              ],
              "internalType": "struct Customs.City",
              "name": "to",
              "type": "tuple"
            },
            {
              "internalType": "uint64",
              "name": "date",
              "type": "uint64"
            },
            {
              "internalType": "bool",
              "name": "success",
              "type": "bool"
            }
          ],
          "indexed": false,
          "internalType": "struct Customs.Trip",
          "name": "trip",
          "type": "tuple"
        }
      ],
      "name": "TravelerDataProcessed",
      "type": "event"
    },
    {
      "inputs": [],
      "name": "owner",
      "outputs": [
        {
          "internalType": "address",
          "name": "",
          "type": "address"
        }
      ],
      "stateMutability": "view",
      "type": "function",
      "constant": true
    },
    {
      "inputs": [],
      "name": "renounceOwnership",
      "outputs": [],
      "stateMutability": "nonpayable",
      "type": "function"
    },
    {
      "inputs": [
        {
          "internalType": "address",
          "name": "newOwner",
          "type": "address"
        }
      ],
      "name": "transferOwnership",
      "outputs": [],
      "stateMutability": "nonpayable",
      "type": "function"
    },
    {
      "inputs": [
        {
          "internalType": "string",
          "name": "_fromCity",
          "type": "string"
        },
        {
          "internalType": "string",
          "name": "_fromCountry",
          "type": "string"
        },
        {
          "internalType": "string",
          "name": "_toCity",
          "type": "string"
        },
        {
          "internalType": "string",
          "name": "_toCountry",
          "type": "string"
        }
      ],
      "name": "crossBorder",
      "outputs": [],
      "stateMutability": "nonpayable",
      "type": "function"
    },
    {
      "inputs": [
        {
          "internalType": "address",
          "name": "_address",
          "type": "address"
        }
      ],
      "name": "setInsuranceContractAddress",
      "outputs": [],
      "stateMutability": "nonpayable",
      "type": "function"
    },
    {
      "inputs": [
        {
          "internalType": "address",
          "name": "userAddress",
          "type": "address"
        }
      ],
      "name": "getValueAtHistoryMapping",
      "outputs": [
        {
          "components": [
            {
              "components": [
                {
                  "internalType": "string",
                  "name": "name",
                  "type": "string"
                },
                {
                  "internalType": "string",
                  "name": "country",
                  "type": "string"
                }
              ],
              "internalType": "struct Customs.City",
              "name": "from",
              "type": "tuple"
            },
            {
              "components": [
                {
                  "internalType": "string",
                  "name": "name",
                  "type": "string"
                },
                {
                  "internalType": "string",
                  "name": "country",
                  "type": "string"
                }
              ],
              "internalType": "struct Customs.City",
              "name": "to",
              "type": "tuple"
            },
            {
              "internalType": "uint64",
              "name": "date",
              "type": "uint64"
            },
            {
              "internalType": "bool",
              "name": "success",
              "type": "bool"
            }
          ],
          "internalType": "struct Customs.Trip[]",
          "name": "",
          "type": "tuple[]"
        }
      ],
      "stateMutability": "view",
      "type": "function",
      "constant": true
    }
  ],
  "bytecode": "0x60806040523480156200001157600080fd5b50604051620015fa380380620015fa833981810160405281019062000037919062000182565b620000576200004b6200009f60201b60201c565b620000a760201b60201c565b80600160006101000a81548173ffffffffffffffffffffffffffffffffffffffff021916908373ffffffffffffffffffffffffffffffffffffffff16021790555050620001fc565b600033905090565b60008060009054906101000a900473ffffffffffffffffffffffffffffffffffffffff169050816000806101000a81548173ffffffffffffffffffffffffffffffffffffffff021916908373ffffffffffffffffffffffffffffffffffffffff1602179055508173ffffffffffffffffffffffffffffffffffffffff168173ffffffffffffffffffffffffffffffffffffffff167f8be0079c531659141344cd1fd0a4f28419497f9722a3daafe3b4186f6b6457e060405160405180910390a35050565b6000815190506200017c81620001e2565b92915050565b6000602082840312156200019557600080fd5b6000620001a5848285016200016b565b91505092915050565b6000620001bb82620001c2565b9050919050565b600073ffffffffffffffffffffffffffffffffffffffff82169050919050565b620001ed81620001ae565b8114620001f957600080fd5b50565b6113ee806200020c6000396000f3fe608060405234801561001057600080fd5b50600436106100625760003560e01c80634b895704146100675780636df32cd414610097578063715018a6146100b35780638da5cb5b146100bd578063e924f9b8146100db578063f2fde38b146100f7575b600080fd5b610081600480360381019061007c9190610bbe565b610113565b60405161008e9190610f90565b60405180910390f35b6100b160048036038101906100ac9190610bbe565b61046e565b005b6100bb61052e565b005b6100c56105b6565b6040516100d29190610f75565b60405180910390f35b6100f560048036038101906100f09190610c10565b6105df565b005b610111600480360381019061010c9190610bbe565b610811565b005b6060600260008373ffffffffffffffffffffffffffffffffffffffff1673ffffffffffffffffffffffffffffffffffffffff168152602001908152602001600020805480602002602001604051908101604052809291908181526020016000905b828210156104635783829060005260206000209060050201604051806080016040529081600082016040518060400160405290816000820180546101b7906111c8565b80601f01602080910402602001604051908101604052809291908181526020018280546101e3906111c8565b80156102305780601f1061020557610100808354040283529160200191610230565b820191906000526020600020905b81548152906001019060200180831161021357829003601f168201915b50505050508152602001600182018054610249906111c8565b80601f0160208091040260200160405190810160405280929190818152602001828054610275906111c8565b80156102c25780601f10610297576101008083540402835291602001916102c2565b820191906000526020600020905b8154815290600101906020018083116102a557829003601f168201915b5050505050815250508152602001600282016040518060400160405290816000820180546102ef906111c8565b80601f016020809104026020016040519081016040528092919081815260200182805461031b906111c8565b80156103685780601f1061033d57610100808354040283529160200191610368565b820191906000526020600020905b81548152906001019060200180831161034b57829003601f168201915b50505050508152602001600182018054610381906111c8565b80601f01602080910402602001604051908101604052809291908181526020018280546103ad906111c8565b80156103fa5780601f106103cf576101008083540402835291602001916103fa565b820191906000526020600020905b8154815290600101906020018083116103dd57829003601f168201915b50505050508152505081526020016004820160009054906101000a900467ffffffffffffffff1667ffffffffffffffff1667ffffffffffffffff1681526020016004820160089054906101000a900460ff16151515158152505081526020019060010190610174565b505050509050919050565b610476610909565b73ffffffffffffffffffffffffffffffffffffffff166104946105b6565b73ffffffffffffffffffffffffffffffffffffffff16146104ea576040517f08c379a00000000000000000000000000000000000000000000000000000000081526004016104e190611058565b60405180910390fd5b80600160006101000a81548173ffffffffffffffffffffffffffffffffffffffff021916908373ffffffffffffffffffffffffffffffffffffffff16021790555050565b610536610909565b73ffffffffffffffffffffffffffffffffffffffff166105546105b6565b73ffffffffffffffffffffffffffffffffffffffff16146105aa576040517f08c379a00000000000000000000000000000000000000000000000000000000081526004016105a190611058565b60405180910390fd5b6105b46000610911565b565b60008060009054906101000a900473ffffffffffffffffffffffffffffffffffffffff16905090565b60006105ea336109d5565b905060006040518060800160405280604051806040016040528089815260200188815250815260200160405180604001604052808781526020018681525081526020014267ffffffffffffffff1681526020018315158152509050600260003373ffffffffffffffffffffffffffffffffffffffff1673ffffffffffffffffffffffffffffffffffffffff16815260200190815260200160002081908060018154018082558091505060019003906000526020600020906005020160009091909190915060008201518160000160008201518160000190805190602001906106d3929190610a89565b5060208201518160010190805190602001906106f0929190610a89565b5050506020820151816002016000820151816000019080519060200190610718929190610a89565b506020820151816001019080519060200190610735929190610a89565b50505060408201518160040160006101000a81548167ffffffffffffffff021916908367ffffffffffffffff16021790555060608201518160040160086101000a81548160ff021916908315150217905550505081156107ce577fde1ddb53df71b2253e5d2bfb0200f919b511de7b9a3a338aebd07b291caa96346001826040516107c1929190610ff5565b60405180910390a1610809565b7fde1ddb53df71b2253e5d2bfb0200f919b511de7b9a3a338aebd07b291caa9634600082604051610800929190610fb2565b60405180910390a15b505050505050565b610819610909565b73ffffffffffffffffffffffffffffffffffffffff166108376105b6565b73ffffffffffffffffffffffffffffffffffffffff161461088d576040517f08c379a000000000000000000000000000000000000000000000000000000000815260040161088490611058565b60405180910390fd5b600073ffffffffffffffffffffffffffffffffffffffff168173ffffffffffffffffffffffffffffffffffffffff1614156108fd576040517f08c379a00000000000000000000000000000000000000000000000000000000081526004016108f490611038565b60405180910390fd5b61090681610911565b50565b600033905090565b60008060009054906101000a900473ffffffffffffffffffffffffffffffffffffffff169050816000806101000a81548173ffffffffffffffffffffffffffffffffffffffff021916908373ffffffffffffffffffffffffffffffffffffffff1602179055508173ffffffffffffffffffffffffffffffffffffffff168173ffffffffffffffffffffffffffffffffffffffff167f8be0079c531659141344cd1fd0a4f28419497f9722a3daafe3b4186f6b6457e060405160405180910390a35050565b6000600160009054906101000a900473ffffffffffffffffffffffffffffffffffffffff1673ffffffffffffffffffffffffffffffffffffffff1663bb215ef1836040518263ffffffff1660e01b8152600401610a329190610f75565b60206040518083038186803b158015610a4a57600080fd5b505afa158015610a5e573d6000803e3d6000fd5b505050506040513d601f19601f82011682018060405250810190610a829190610be7565b9050919050565b828054610a95906111c8565b90600052602060002090601f016020900481019282610ab75760008555610afe565b82601f10610ad057805160ff1916838001178555610afe565b82800160010185558215610afe579182015b82811115610afd578251825591602001919060010190610ae2565b5b509050610b0b9190610b0f565b5090565b5b80821115610b28576000816000905550600101610b10565b5090565b6000610b3f610b3a8461109d565b611078565b905082815260208101848484011115610b5757600080fd5b610b62848285611186565b509392505050565b600081359050610b798161138a565b92915050565b600081519050610b8e816113a1565b92915050565b600082601f830112610ba557600080fd5b8135610bb5848260208601610b2c565b91505092915050565b600060208284031215610bd057600080fd5b6000610bde84828501610b6a565b91505092915050565b600060208284031215610bf957600080fd5b6000610c0784828501610b7f565b91505092915050565b60008060008060808587031215610c2657600080fd5b600085013567ffffffffffffffff811115610c4057600080fd5b610c4c87828801610b94565b945050602085013567ffffffffffffffff811115610c6957600080fd5b610c7587828801610b94565b935050604085013567ffffffffffffffff811115610c9257600080fd5b610c9e87828801610b94565b925050606085013567ffffffffffffffff811115610cbb57600080fd5b610cc787828801610b94565b91505092959194509250565b6000610cdf8383610e92565b905092915050565b610cf081611134565b82525050565b6000610d01826110de565b610d0b8185611101565b935083602082028501610d1d856110ce565b8060005b85811015610d595784840389528151610d3a8582610cd3565b9450610d45836110f4565b925060208a01995050600181019050610d21565b50829750879550505050505092915050565b610d7481611146565b82525050565b610d8381611146565b82525050565b6000610d94826110e9565b610d9e8185611112565b9350610dae818560208601611195565b610db781611289565b840191505092915050565b6000610dcf602683611123565b9150610dda8261129a565b604082019050919050565b6000610df2603083611123565b9150610dfd826112e9565b604082019050919050565b6000610e15601a83611123565b9150610e2082611338565b602082019050919050565b6000610e38602083611123565b9150610e4382611361565b602082019050919050565b60006040830160008301518482036000860152610e6b8282610d89565b91505060208301518482036020860152610e858282610d89565b9150508091505092915050565b60006080830160008301518482036000860152610eaf8282610e4e565b91505060208301518482036020860152610ec98282610e4e565b9150506040830151610ede6040860182610f66565b506060830151610ef16060860182610d6b565b508091505092915050565b60006080830160008301518482036000860152610f198282610e4e565b91505060208301518482036020860152610f338282610e4e565b9150506040830151610f486040860182610f66565b506060830151610f5b6060860182610d6b565b508091505092915050565b610f6f81611172565b82525050565b6000602082019050610f8a6000830184610ce7565b92915050565b60006020820190508181036000830152610faa8184610cf6565b905092915050565b6000606082019050610fc76000830185610d7a565b8181036020830152610fd881610de5565b90508181036040830152610fec8184610efc565b90509392505050565b600060608201905061100a6000830185610d7a565b818103602083015261101b81610e08565b9050818103604083015261102f8184610efc565b90509392505050565b6000602082019050818103600083015261105181610dc2565b9050919050565b6000602082019050818103600083015261107181610e2b565b9050919050565b6000611082611093565b905061108e82826111fa565b919050565b6000604051905090565b600067ffffffffffffffff8211156110b8576110b761125a565b5b6110c182611289565b9050602081019050919050565b6000819050602082019050919050565b600081519050919050565b600081519050919050565b6000602082019050919050565b600082825260208201905092915050565b600082825260208201905092915050565b600082825260208201905092915050565b600061113f82611152565b9050919050565b60008115159050919050565b600073ffffffffffffffffffffffffffffffffffffffff82169050919050565b600067ffffffffffffffff82169050919050565b82818337600083830152505050565b60005b838110156111b3578082015181840152602081019050611198565b838111156111c2576000848401525b50505050565b600060028204905060018216806111e057607f821691505b602082108114156111f4576111f361122b565b5b50919050565b61120382611289565b810181811067ffffffffffffffff821117156112225761122161125a565b5b80604052505050565b7f4e487b7100000000000000000000000000000000000000000000000000000000600052602260045260246000fd5b7f4e487b7100000000000000000000000000000000000000000000000000000000600052604160045260246000fd5b6000601f19601f8301169050919050565b7f4f776e61626c653a206e6577206f776e657220697320746865207a65726f206160008201527f6464726573730000000000000000000000000000000000000000000000000000602082015250565b7f426f726465722063726f7373696e67206973206e6f7420616c6c6f7765642e2060008201527f496e737572616e6365206e656564656400000000000000000000000000000000602082015250565b7f426f726465722063726f7373696e6720697320616c6c6f776564000000000000600082015250565b7f4f776e61626c653a2063616c6c6572206973206e6f7420746865206f776e6572600082015250565b61139381611134565b811461139e57600080fd5b50565b6113aa81611146565b81146113b557600080fd5b5056fea2646970667358221220ae7cd932baa72fdd1388da7db283063fc63fd2144b1f5ca38f89248f2dc78bd164736f6c63430008020033",
  "immutableReferences": {},
  "source": "// SPDX-License-Identifier: MIT\r\npragma experimental ABIEncoderV2;\r\npragma solidity >=0.4.22 <0.9.0;\r\n\r\nimport \"@openzeppelin/contracts/access/Ownable.sol\";\r\n\r\ncontract Customs is Ownable {\r\n    event TravelerDataProcessed(bool success, string message, Trip trip);\r\n\r\n    InsuranceInterface insuranceContract;\r\n\r\n    struct Trip {\r\n        City from;\r\n        City to;\r\n        uint64 date;\r\n        bool success;\r\n    }\r\n\r\n    struct City {\r\n        string name;\r\n        string country;\r\n    }\r\n\r\n    mapping(address => Trip[]) personToHistory;\r\n\r\n    constructor(address _insuranceAddress) {\r\n        insuranceContract = InsuranceInterface(_insuranceAddress);\r\n    }\r\n\r\n    function crossBorder(\r\n        string memory _fromCity,\r\n        string memory _fromCountry,\r\n        string memory _toCity,\r\n        string memory _toCountry) external {\r\n            bool insuranceCheckPassed = isInsuranceUpToDate(msg.sender);\r\n            Trip memory tripToCreate = Trip(\r\n                City(_fromCity, _fromCountry), \r\n                City(_toCity, _toCountry), \r\n                uint64(block.timestamp), \r\n                insuranceCheckPassed\r\n            );\r\n            personToHistory[msg.sender].push(tripToCreate);\r\n\r\n            if (insuranceCheckPassed) {\r\n                emit TravelerDataProcessed(true, \"Border crossing is allowed\", tripToCreate);\r\n            } else {\r\n                emit TravelerDataProcessed(false, \"Border crossing is not allowed. Insurance needed\", tripToCreate);\r\n            }\r\n    }\r\n\r\n    function setInsuranceContractAddress(address _address) external onlyOwner {\r\n        insuranceContract = InsuranceInterface(_address);\r\n    }\r\n\r\n    function isInsuranceUpToDate(address _person) private view returns (bool) {\r\n        return insuranceContract.checkInsurance(_person);\r\n    }\r\n\r\n    function getValueAtHistoryMapping(address userAddress) public view returns (Trip[] memory) {\r\n        return personToHistory[userAddress];\r\n    }\r\n}\r\n\r\ninterface InsuranceInterface {\r\n    function checkInsurance(address _person) external view returns (\r\n        bool isInsuranceOk\r\n    );\r\n}",
  "sourcePath": "C:\\Users\\Volodymyr\\Documents\\dTourist\\contracts\\Customs.sol",
  "compiler": {
    "name": "solc",
    "version": "0.8.2+commit.661d1103.Emscripten.clang"
  },
  "schemaVersion": "3.4.3",
  "updatedAt": "2022-02-01T20:26:47.948Z",
  "networkType": "ethereum",
  "devdoc": {
    "kind": "dev",
    "methods": {
      "owner()": {
        "details": "Returns the address of the current owner."
      },
      "renounceOwnership()": {
        "details": "Leaves the contract without owner. It will not be possible to call `onlyOwner` functions anymore. Can only be called by the current owner. NOTE: Renouncing ownership will leave the contract without an owner, thereby removing any functionality that is only available to the owner."
      },
      "transferOwnership(address)": {
        "details": "Transfers ownership of the contract to a new account (`newOwner`). Can only be called by the current owner."
      }
    },
    "version": 1
  },
  "userdoc": {
    "kind": "user",
    "methods": {},
    "version": 1
  }
}