{
  "contractName": "InsuranceStore",
  "abi": [
    {
      "inputs": [
        {
          "internalType": "uint256",
          "name": "_days",
          "type": "uint256"
        },
        {
          "internalType": "enum InsuranceStore.InsuranceType",
          "name": "_type",
          "type": "uint8"
        }
      ],
      "name": "buyInsurance",
      "outputs": [],
      "stateMutability": "payable",
      "type": "function"
    },
    {
      "inputs": [
        {
          "internalType": "address",
          "name": "_person",
          "type": "address"
        }
      ],
      "name": "getInsuranceInfo",
      "outputs": [
        {
          "internalType": "uint256",
          "name": "expiryDate",
          "type": "uint256"
        }
      ],
      "stateMutability": "view",
      "type": "function"
    }
  ],
  "bytecode": "0x6080604052662386f26fc1000060005566354a6ba7a1800060015534801561002657600080fd5b50610558806100366000396000f3fe6080604052600436106100295760003560e01c80633f1c55fc1461002e578063f51e6b371461006b575b600080fd5b34801561003a57600080fd5b506100556004803603810190610050919061033a565b610087565b60405161006291906103ae565b60405180910390f35b61008560048036038101906100809190610363565b6100d3565b005b6000600260008373ffffffffffffffffffffffffffffffffffffffff1673ffffffffffffffffffffffffffffffffffffffff168152602001908152602001600020600001549050919050565b6000600181111561010d577f4e487b7100000000000000000000000000000000000000000000000000000000600052602160045260246000fd5b816001811115610146577f4e487b7100000000000000000000000000000000000000000000000000000000600052602160045260246000fd5b141561016a57346000548361015b919061041f565b1461016557600080fd5b6101fd565b6001808111156101a3577f4e487b7100000000000000000000000000000000000000000000000000000000600052602160045260246000fd5b8160018111156101dc577f4e487b7100000000000000000000000000000000000000000000000000000000600052602160045260246000fd5b14156101fc5734600154836101f1919061041f565b146101fb57600080fd5b5b5b6040518060400160405280834261021491906103c9565b8152602001826001811115610252577f4e487b7100000000000000000000000000000000000000000000000000000000600052602160045260246000fd5b815250600260003373ffffffffffffffffffffffffffffffffffffffff1673ffffffffffffffffffffffffffffffffffffffff1681526020019081526020016000206000820151816000015560208201518160010160006101000a81548160ff021916908360018111156102ef577f4e487b7100000000000000000000000000000000000000000000000000000000600052602160045260246000fd5b02179055509050505050565b60008135905061030a816104e4565b92915050565b60008135905061031f816104fb565b92915050565b6000813590506103348161050b565b92915050565b60006020828403121561034c57600080fd5b600061035a848285016102fb565b91505092915050565b6000806040838503121561037657600080fd5b600061038485828601610325565b925050602061039585828601610310565b9150509250929050565b6103a8816104ab565b82525050565b60006020820190506103c3600083018461039f565b92915050565b60006103d4826104ab565b91506103df836104ab565b9250827fffffffffffffffffffffffffffffffffffffffffffffffffffffffffffffffff03821115610414576104136104b5565b5b828201905092915050565b600061042a826104ab565b9150610435836104ab565b9250817fffffffffffffffffffffffffffffffffffffffffffffffffffffffffffffffff048311821515161561046e5761046d6104b5565b5b828202905092915050565b60006104848261048b565b9050919050565b600073ffffffffffffffffffffffffffffffffffffffff82169050919050565b6000819050919050565b7f4e487b7100000000000000000000000000000000000000000000000000000000600052601160045260246000fd5b6104ed81610479565b81146104f857600080fd5b50565b6002811061050857600080fd5b50565b610514816104ab565b811461051f57600080fd5b5056fea264697066735822122087063d2f2610c0d0a037029425e56f417d20e24a805e57211f02b03adbc1d8b464736f6c63430008020033",
  "immutableReferences": {},
  "source": "// SPDX-License-Identifier: MIT\r\npragma solidity >=0.4.22 <0.9.0;\r\n\r\ncontract InsuranceStore {\r\n    enum InsuranceType { CLASSIC, PREMIUM }\r\n\r\n    uint basicDaylyInsurancePrice = 0.01 ether;\r\n    uint basicDaylyInsurancePremiumPrice = 0.015 ether;\r\n\r\n    struct Insurance {\r\n        uint expiryDate;\r\n        InsuranceType insuranceType;\r\n    }\r\n\r\n    mapping(address => Insurance) personToInsurance;\r\n\r\n    function buyInsurance(uint _days, InsuranceType _type) external payable {\r\n        if (_type == InsuranceType.CLASSIC) {\r\n            require(_days * basicDaylyInsurancePrice == msg.value);\r\n        } else if (_type == InsuranceType.PREMIUM) {\r\n            require(_days * basicDaylyInsurancePremiumPrice == msg.value);\r\n        }\r\n        \r\n        personToInsurance[msg.sender] = Insurance(block.timestamp + _days, _type);\r\n    }\r\n\r\n    function getInsuranceInfo(address _person) external view returns(uint expiryDate) {\r\n        return personToInsurance[_person].expiryDate;\r\n    }\r\n}",
  "sourcePath": "C:\\Users\\Volodymyr\\Documents\\dTourist\\contracts\\Insurance.sol",
  "compiler": {
    "name": "solc",
    "version": "0.8.2+commit.661d1103.Emscripten.clang"
  },
  "schemaVersion": "3.4.3",
  "updatedAt": "2022-01-27T19:44:23.077Z",
  "devdoc": {
    "kind": "dev",
    "methods": {},
    "version": 1
  },
  "userdoc": {
    "kind": "user",
    "methods": {},
    "version": 1
  }
}