{
  "contractName": "InsuranceStore",
  "abi": [
    {
      "inputs": [
        {
          "internalType": "uint256",
          "name": "_days",
          "type": "uint256"
        },
        {
          "internalType": "enum InsuranceStore.InsuranceType",
          "name": "_type",
          "type": "uint8"
        }
      ],
      "name": "buyInsurance",
      "outputs": [],
      "stateMutability": "payable",
      "type": "function",
      "payable": true
    },
    {
      "inputs": [
        {
          "internalType": "address",
          "name": "_person",
          "type": "address"
        }
      ],
      "name": "getInsuranceInfo",
      "outputs": [
        {
          "components": [
            {
              "internalType": "uint256",
              "name": "expiryDate",
              "type": "uint256"
            },
            {
              "internalType": "enum InsuranceStore.InsuranceType",
              "name": "insuranceType",
              "type": "uint8"
            }
          ],
          "internalType": "struct InsuranceStore.Insurance",
          "name": "",
          "type": "tuple"
        }
      ],
      "stateMutability": "view",
      "type": "function",
      "constant": true
    },
    {
      "inputs": [
        {
          "internalType": "address",
          "name": "_person",
          "type": "address"
        }
      ],
      "name": "checkInsurance",
      "outputs": [
        {
          "internalType": "bool",
          "name": "",
          "type": "bool"
        }
      ],
      "stateMutability": "view",
      "type": "function",
      "constant": true
    }
  ],
  "bytecode": "0x6080604052662386f26fc1000060005566354a6ba7a1800060015534801561002657600080fd5b50610872806100366000396000f3fe6080604052600436106100345760003560e01c80633f1c55fc14610039578063bb215ef114610076578063f51e6b37146100b3575b600080fd5b34801561004557600080fd5b50610060600480360381019061005b9190610578565b6100cf565b60405161006d9190610654565b60405180910390f35b34801561008257600080fd5b5061009d60048036038101906100989190610578565b6101b9565b6040516100aa9190610639565b60405180910390f35b6100cd60048036038101906100c891906105a1565b610207565b005b6100d76104e7565b600260008373ffffffffffffffffffffffffffffffffffffffff1673ffffffffffffffffffffffffffffffffffffffff168152602001908152602001600020604051806040016040529081600082015481526020016001820160009054906101000a900460ff166001811115610176577f4e487b7100000000000000000000000000000000000000000000000000000000600052602160045260246000fd5b60018111156101ae577f4e487b7100000000000000000000000000000000000000000000000000000000600052602160045260246000fd5b815250509050919050565b600042600260008473ffffffffffffffffffffffffffffffffffffffff1673ffffffffffffffffffffffffffffffffffffffff16815260200190815260200160002060000154119050919050565b6000821161021457600080fd5b6000600181111561024e577f4e487b7100000000000000000000000000000000000000000000000000000000600052602160045260246000fd5b816001811115610287577f4e487b7100000000000000000000000000000000000000000000000000000000600052602160045260246000fd5b14156102ab57346000548361029c91906106c5565b146102a657600080fd5b61033e565b6001808111156102e4577f4e487b7100000000000000000000000000000000000000000000000000000000600052602160045260246000fd5b81600181111561031d577f4e487b7100000000000000000000000000000000000000000000000000000000600052602160045260246000fd5b141561033d57346001548361033291906106c5565b1461033c57600080fd5b5b5b6000620151808361034f91906106c5565b4261035a919061066f565b9050600180811115610395577f4e487b7100000000000000000000000000000000000000000000000000000000600052602160045260246000fd5b8260018111156103ce577f4e487b7100000000000000000000000000000000000000000000000000000000600052602160045260246000fd5b1480156103dc575060078310155b156103f35762015180816103f0919061066f565b90505b604051806040016040528082815260200183600181111561043d577f4e487b7100000000000000000000000000000000000000000000000000000000600052602160045260246000fd5b815250600260003373ffffffffffffffffffffffffffffffffffffffff1673ffffffffffffffffffffffffffffffffffffffff1681526020019081526020016000206000820151816000015560208201518160010160006101000a81548160ff021916908360018111156104da577f4e487b7100000000000000000000000000000000000000000000000000000000600052602160045260246000fd5b0217905550905050505050565b60405180604001604052806000815260200160006001811115610533577f4e487b7100000000000000000000000000000000000000000000000000000000600052602160045260246000fd5b81525090565b600081359050610548816107fe565b92915050565b60008135905061055d81610815565b92915050565b60008135905061057281610825565b92915050565b60006020828403121561058a57600080fd5b600061059884828501610539565b91505092915050565b600080604083850312156105b457600080fd5b60006105c285828601610563565b92505060206105d38582860161054e565b9150509250929050565b6105e681610731565b82525050565b6105f58161077a565b82525050565b604082016000820151610611600085018261062a565b50602082015161062460208501826105ec565b50505050565b61063381610770565b82525050565b600060208201905061064e60008301846105dd565b92915050565b600060408201905061066960008301846105fb565b92915050565b600061067a82610770565b915061068583610770565b9250827fffffffffffffffffffffffffffffffffffffffffffffffffffffffffffffffff038211156106ba576106b961078c565b5b828201905092915050565b60006106d082610770565b91506106db83610770565b9250817fffffffffffffffffffffffffffffffffffffffffffffffffffffffffffffffff04831182151516156107145761071361078c565b5b828202905092915050565b600061072a82610750565b9050919050565b60008115159050919050565b600081905061074b826107ea565b919050565b600073ffffffffffffffffffffffffffffffffffffffff82169050919050565b6000819050919050565b60006107858261073d565b9050919050565b7f4e487b7100000000000000000000000000000000000000000000000000000000600052601160045260246000fd5b7f4e487b7100000000000000000000000000000000000000000000000000000000600052602160045260246000fd5b600281106107fb576107fa6107bb565b5b50565b6108078161071f565b811461081257600080fd5b50565b6002811061082257600080fd5b50565b61082e81610770565b811461083957600080fd5b5056fea2646970667358221220e18e15d15f893e1c197522a65f22edd065434beb063da4eb7dfaebc26e76bf8164736f6c63430008020033",
  "immutableReferences": {},
  "source": "// SPDX-License-Identifier: MIT\r\npragma solidity >=0.4.22 <0.9.0;\r\n\r\ncontract InsuranceStore {\r\n    enum InsuranceType { CLASSIC, PREMIUM }\r\n\r\n    uint basicDaylyInsurancePrice = 0.01 ether;\r\n    uint basicDaylyInsurancePremiumPrice = 0.015 ether;\r\n\r\n    struct Insurance {\r\n        uint expiryDate;\r\n        InsuranceType insuranceType;\r\n    }\r\n\r\n    mapping(address => Insurance) personToInsurance;\r\n\r\n    function buyInsurance(uint _days, InsuranceType _type) external payable {\r\n        require(_days > 0);\r\n        \r\n        if (_type == InsuranceType.CLASSIC) {\r\n            require(_days * basicDaylyInsurancePrice == msg.value);\r\n        } else if (_type == InsuranceType.PREMIUM) {\r\n            require(_days * basicDaylyInsurancePremiumPrice == msg.value);\r\n        }\r\n        \r\n        uint expiry = block.timestamp + (_days * 1 days);\r\n\r\n        if (_type == InsuranceType.PREMIUM && _days >= 7) {\r\n            expiry += 1 days;\r\n        }\r\n\r\n        personToInsurance[msg.sender] = Insurance(expiry, _type);\r\n    }\r\n\r\n    function getInsuranceInfo(address _person) external view returns(Insurance memory) {\r\n        return personToInsurance[_person];\r\n    }\r\n\r\n    function checkInsurance(address _person) external view returns(bool) {\r\n        return personToInsurance[_person].expiryDate > block.timestamp;\r\n    }\r\n}",
  "sourcePath": "C:\\Users\\Volodymyr\\Documents\\dTourist\\contracts\\Insurance.sol",
  "compiler": {
    "name": "solc",
    "version": "0.8.2+commit.661d1103.Emscripten.clang"
  },
  "schemaVersion": "3.4.3",
  "updatedAt": "2022-02-01T20:26:47.955Z",
  "networkType": "ethereum",
  "devdoc": {
    "kind": "dev",
    "methods": {},
    "version": 1
  },
  "userdoc": {
    "kind": "user",
    "methods": {},
    "version": 1
  }
}