{
  "contractName": "InsuranceStore",
  "abi": [
    {
      "inputs": [
        {
          "internalType": "uint256",
          "name": "_days",
          "type": "uint256"
        },
        {
          "internalType": "enum InsuranceStore.InsuranceType",
          "name": "_type",
          "type": "uint8"
        }
      ],
      "name": "buyInsurance",
      "outputs": [],
      "stateMutability": "payable",
      "type": "function",
      "payable": true
    },
    {
      "inputs": [
        {
          "internalType": "address",
          "name": "_person",
          "type": "address"
        }
      ],
      "name": "getInsuranceInfo",
      "outputs": [
        {
          "components": [
            {
              "internalType": "uint256",
              "name": "expiryDate",
              "type": "uint256"
            },
            {
              "internalType": "enum InsuranceStore.InsuranceType",
              "name": "insuranceType",
              "type": "uint8"
            }
          ],
          "internalType": "struct InsuranceStore.Insurance",
          "name": "",
          "type": "tuple"
        }
      ],
      "stateMutability": "view",
      "type": "function",
      "constant": true
    },
    {
      "inputs": [
        {
          "internalType": "address",
          "name": "_person",
          "type": "address"
        }
      ],
      "name": "checkInsurance",
      "outputs": [
        {
          "internalType": "bool",
          "name": "",
          "type": "bool"
        }
      ],
      "stateMutability": "view",
      "type": "function",
      "constant": true
    }
  ],
  "bytecode": "0x6080604052662386f26fc1000060005566354a6ba7a1800060015534801561002657600080fd5b506107c8806100366000396000f3fe6080604052600436106100345760003560e01c80633f1c55fc14610039578063bb215ef114610076578063f51e6b37146100b3575b600080fd5b34801561004557600080fd5b50610060600480360381019061005b91906104ce565b6100cf565b60405161006d91906105aa565b60405180910390f35b34801561008257600080fd5b5061009d600480360381019061009891906104ce565b6101b9565b6040516100aa919061058f565b60405180910390f35b6100cd60048036038101906100c891906104f7565b610207565b005b6100d761043d565b600260008373ffffffffffffffffffffffffffffffffffffffff1673ffffffffffffffffffffffffffffffffffffffff168152602001908152602001600020604051806040016040529081600082015481526020016001820160009054906101000a900460ff166001811115610176577f4e487b7100000000000000000000000000000000000000000000000000000000600052602160045260246000fd5b60018111156101ae577f4e487b7100000000000000000000000000000000000000000000000000000000600052602160045260246000fd5b815250509050919050565b600042600260008473ffffffffffffffffffffffffffffffffffffffff1673ffffffffffffffffffffffffffffffffffffffff16815260200190815260200160002060000154119050919050565b60006001811115610241577f4e487b7100000000000000000000000000000000000000000000000000000000600052602160045260246000fd5b81600181111561027a577f4e487b7100000000000000000000000000000000000000000000000000000000600052602160045260246000fd5b141561029e57346000548361028f919061061b565b1461029957600080fd5b610331565b6001808111156102d7577f4e487b7100000000000000000000000000000000000000000000000000000000600052602160045260246000fd5b816001811115610310577f4e487b7100000000000000000000000000000000000000000000000000000000600052602160045260246000fd5b1415610330573460015483610325919061061b565b1461032f57600080fd5b5b5b6040518060400160405280620151808461034b919061061b565b4261035691906105c5565b8152602001826001811115610394577f4e487b7100000000000000000000000000000000000000000000000000000000600052602160045260246000fd5b815250600260003373ffffffffffffffffffffffffffffffffffffffff1673ffffffffffffffffffffffffffffffffffffffff1681526020019081526020016000206000820151816000015560208201518160010160006101000a81548160ff02191690836001811115610431577f4e487b7100000000000000000000000000000000000000000000000000000000600052602160045260246000fd5b02179055509050505050565b60405180604001604052806000815260200160006001811115610489577f4e487b7100000000000000000000000000000000000000000000000000000000600052602160045260246000fd5b81525090565b60008135905061049e81610754565b92915050565b6000813590506104b38161076b565b92915050565b6000813590506104c88161077b565b92915050565b6000602082840312156104e057600080fd5b60006104ee8482850161048f565b91505092915050565b6000806040838503121561050a57600080fd5b6000610518858286016104b9565b9250506020610529858286016104a4565b9150509250929050565b61053c81610687565b82525050565b61054b816106d0565b82525050565b6040820160008201516105676000850182610580565b50602082015161057a6020850182610542565b50505050565b610589816106c6565b82525050565b60006020820190506105a46000830184610533565b92915050565b60006040820190506105bf6000830184610551565b92915050565b60006105d0826106c6565b91506105db836106c6565b9250827fffffffffffffffffffffffffffffffffffffffffffffffffffffffffffffffff038211156106105761060f6106e2565b5b828201905092915050565b6000610626826106c6565b9150610631836106c6565b9250817fffffffffffffffffffffffffffffffffffffffffffffffffffffffffffffffff048311821515161561066a576106696106e2565b5b828202905092915050565b6000610680826106a6565b9050919050565b60008115159050919050565b60008190506106a182610740565b919050565b600073ffffffffffffffffffffffffffffffffffffffff82169050919050565b6000819050919050565b60006106db82610693565b9050919050565b7f4e487b7100000000000000000000000000000000000000000000000000000000600052601160045260246000fd5b7f4e487b7100000000000000000000000000000000000000000000000000000000600052602160045260246000fd5b6002811061075157610750610711565b5b50565b61075d81610675565b811461076857600080fd5b50565b6002811061077857600080fd5b50565b610784816106c6565b811461078f57600080fd5b5056fea26469706673582212207b31c96f79d655acc43a79c0deadc87c4ad561254d5992f4ea02cfd7ecbec43364736f6c63430008020033",
  "immutableReferences": {},
  "source": "// SPDX-License-Identifier: MIT\r\npragma solidity >=0.4.22 <0.9.0;\r\n\r\ncontract InsuranceStore {\r\n    enum InsuranceType { CLASSIC, PREMIUM }\r\n\r\n    uint basicDaylyInsurancePrice = 0.01 ether;\r\n    uint basicDaylyInsurancePremiumPrice = 0.015 ether;\r\n\r\n    struct Insurance {\r\n        uint expiryDate;\r\n        InsuranceType insuranceType;\r\n    }\r\n\r\n    mapping(address => Insurance) personToInsurance;\r\n\r\n    function buyInsurance(uint _days, InsuranceType _type) external payable {\r\n        if (_type == InsuranceType.CLASSIC) {\r\n            require(_days * basicDaylyInsurancePrice == msg.value);\r\n        } else if (_type == InsuranceType.PREMIUM) {\r\n            require(_days * basicDaylyInsurancePremiumPrice == msg.value);\r\n        }\r\n        \r\n        personToInsurance[msg.sender] = Insurance(block.timestamp + (_days * 1 days), _type);\r\n    }\r\n\r\n    function getInsuranceInfo(address _person) external view returns(Insurance memory) {\r\n        return personToInsurance[_person];\r\n    }\r\n\r\n    function checkInsurance(address _person) external view returns(bool) {\r\n        return personToInsurance[_person].expiryDate > block.timestamp;\r\n    }\r\n}",
  "sourcePath": "C:\\Users\\Volodymyr\\Documents\\dTourist\\contracts\\Insurance.sol",
  "compiler": {
    "name": "solc",
    "version": "0.8.2+commit.661d1103.Emscripten.clang"
  },
  "schemaVersion": "3.4.3",
  "updatedAt": "2022-01-30T12:12:58.998Z",
  "networkType": "ethereum",
  "devdoc": {
    "kind": "dev",
    "methods": {},
    "version": 1
  },
  "userdoc": {
    "kind": "user",
    "methods": {},
    "version": 1
  }
}