{
  "contractName": "InsuranceStore",
  "abi": [
    {
      "anonymous": false,
      "inputs": [
        {
          "indexed": true,
          "internalType": "address",
          "name": "previousOwner",
          "type": "address"
        },
        {
          "indexed": true,
          "internalType": "address",
          "name": "newOwner",
          "type": "address"
        }
      ],
      "name": "OwnershipTransferred",
      "type": "event"
    },
    {
      "inputs": [],
      "name": "owner",
      "outputs": [
        {
          "internalType": "address",
          "name": "",
          "type": "address"
        }
      ],
      "stateMutability": "view",
      "type": "function",
      "constant": true
    },
    {
      "inputs": [],
      "name": "renounceOwnership",
      "outputs": [],
      "stateMutability": "nonpayable",
      "type": "function"
    },
    {
      "inputs": [
        {
          "internalType": "address",
          "name": "newOwner",
          "type": "address"
        }
      ],
      "name": "transferOwnership",
      "outputs": [],
      "stateMutability": "nonpayable",
      "type": "function"
    },
    {
      "inputs": [
        {
          "internalType": "uint256",
          "name": "_days",
          "type": "uint256"
        },
        {
          "internalType": "enum InsuranceStore.InsuranceType",
          "name": "_type",
          "type": "uint8"
        }
      ],
      "name": "buyInsurance",
      "outputs": [],
      "stateMutability": "payable",
      "type": "function",
      "payable": true
    },
    {
      "inputs": [],
      "name": "withdraw",
      "outputs": [],
      "stateMutability": "nonpayable",
      "type": "function"
    },
    {
      "inputs": [
        {
          "internalType": "address",
          "name": "_person",
          "type": "address"
        }
      ],
      "name": "getInsuranceInfo",
      "outputs": [
        {
          "components": [
            {
              "internalType": "uint256",
              "name": "expiryDate",
              "type": "uint256"
            },
            {
              "internalType": "enum InsuranceStore.InsuranceType",
              "name": "insuranceType",
              "type": "uint8"
            }
          ],
          "internalType": "struct InsuranceStore.Insurance",
          "name": "",
          "type": "tuple"
        }
      ],
      "stateMutability": "view",
      "type": "function",
      "constant": true
    },
    {
      "inputs": [
        {
          "internalType": "address",
          "name": "_person",
          "type": "address"
        }
      ],
      "name": "checkInsurance",
      "outputs": [
        {
          "internalType": "bool",
          "name": "",
          "type": "bool"
        }
      ],
      "stateMutability": "view",
      "type": "function",
      "constant": true
    },
    {
      "inputs": [],
      "name": "getBalance",
      "outputs": [
        {
          "internalType": "uint256",
          "name": "",
          "type": "uint256"
        }
      ],
      "stateMutability": "view",
      "type": "function",
      "constant": true
    }
  ],
  "bytecode": "0x6080604052662386f26fc1000060015566354a6ba7a1800060025534801561002657600080fd5b5061004361003861004860201b60201c565b61005060201b60201c565b610114565b600033905090565b60008060009054906101000a900473ffffffffffffffffffffffffffffffffffffffff169050816000806101000a81548173ffffffffffffffffffffffffffffffffffffffff021916908373ffffffffffffffffffffffffffffffffffffffff1602179055508173ffffffffffffffffffffffffffffffffffffffff168173ffffffffffffffffffffffffffffffffffffffff167f8be0079c531659141344cd1fd0a4f28419497f9722a3daafe3b4186f6b6457e060405160405180910390a35050565b610e18806101236000396000f3fe60806040526004361061007b5760003560e01c80638da5cb5b1161004e5780638da5cb5b14610116578063bb215ef114610141578063f2fde38b1461017e578063f51e6b37146101a75761007b565b806312065fe0146100805780633ccfd60b146100ab5780633f1c55fc146100c2578063715018a6146100ff575b600080fd5b34801561008c57600080fd5b506100956101c3565b6040516100a29190610b71565b60405180910390f35b3480156100b757600080fd5b506100c06101cb565b005b3480156100ce57600080fd5b506100e960048036038101906100e491906109bb565b61029d565b6040516100f69190610b56565b60405180910390f35b34801561010b57600080fd5b50610114610387565b005b34801561012257600080fd5b5061012b61040f565b6040516101389190610ae0565b60405180910390f35b34801561014d57600080fd5b50610168600480360381019061016391906109bb565b610438565b6040516101759190610afb565b60405180910390f35b34801561018a57600080fd5b506101a560048036038101906101a091906109bb565b610486565b005b6101c160048036038101906101bc91906109e4565b61057e565b005b600047905090565b6101d361085e565b73ffffffffffffffffffffffffffffffffffffffff166101f161040f565b73ffffffffffffffffffffffffffffffffffffffff1614610247576040517f08c379a000000000000000000000000000000000000000000000000000000000815260040161023e90610b36565b60405180910390fd5b600061025161040f565b90508073ffffffffffffffffffffffffffffffffffffffff166108fc479081150290604051600060405180830381858888f19350505050158015610299573d6000803e3d6000fd5b5050565b6102a561092a565b600360008373ffffffffffffffffffffffffffffffffffffffff1673ffffffffffffffffffffffffffffffffffffffff168152602001908152602001600020604051806040016040529081600082015481526020016001820160009054906101000a900460ff166001811115610344577f4e487b7100000000000000000000000000000000000000000000000000000000600052602160045260246000fd5b600181111561037c577f4e487b7100000000000000000000000000000000000000000000000000000000600052602160045260246000fd5b815250509050919050565b61038f61085e565b73ffffffffffffffffffffffffffffffffffffffff166103ad61040f565b73ffffffffffffffffffffffffffffffffffffffff1614610403576040517f08c379a00000000000000000000000000000000000000000000000000000000081526004016103fa90610b36565b60405180910390fd5b61040d6000610866565b565b60008060009054906101000a900473ffffffffffffffffffffffffffffffffffffffff16905090565b600042600360008473ffffffffffffffffffffffffffffffffffffffff1673ffffffffffffffffffffffffffffffffffffffff16815260200190815260200160002060000154119050919050565b61048e61085e565b73ffffffffffffffffffffffffffffffffffffffff166104ac61040f565b73ffffffffffffffffffffffffffffffffffffffff1614610502576040517f08c379a00000000000000000000000000000000000000000000000000000000081526004016104f990610b36565b60405180910390fd5b600073ffffffffffffffffffffffffffffffffffffffff168173ffffffffffffffffffffffffffffffffffffffff161415610572576040517f08c379a000000000000000000000000000000000000000000000000000000000815260040161056990610b16565b60405180910390fd5b61057b81610866565b50565b6000821161058b57600080fd5b600060018111156105c5577f4e487b7100000000000000000000000000000000000000000000000000000000600052602160045260246000fd5b8160018111156105fe577f4e487b7100000000000000000000000000000000000000000000000000000000600052602160045260246000fd5b14156106225734600154836106139190610bf3565b1461061d57600080fd5b6106b5565b60018081111561065b577f4e487b7100000000000000000000000000000000000000000000000000000000600052602160045260246000fd5b816001811115610694577f4e487b7100000000000000000000000000000000000000000000000000000000600052602160045260246000fd5b14156106b45734600254836106a99190610bf3565b146106b357600080fd5b5b5b600062015180836106c69190610bf3565b426106d19190610b9d565b905060018081111561070c577f4e487b7100000000000000000000000000000000000000000000000000000000600052602160045260246000fd5b826001811115610745577f4e487b7100000000000000000000000000000000000000000000000000000000600052602160045260246000fd5b148015610753575060078310155b1561076a5762015180816107679190610b9d565b90505b60405180604001604052808281526020018360018111156107b4577f4e487b7100000000000000000000000000000000000000000000000000000000600052602160045260246000fd5b815250600360003373ffffffffffffffffffffffffffffffffffffffff1673ffffffffffffffffffffffffffffffffffffffff1681526020019081526020016000206000820151816000015560208201518160010160006101000a81548160ff02191690836001811115610851577f4e487b7100000000000000000000000000000000000000000000000000000000600052602160045260246000fd5b0217905550905050505050565b600033905090565b60008060009054906101000a900473ffffffffffffffffffffffffffffffffffffffff169050816000806101000a81548173ffffffffffffffffffffffffffffffffffffffff021916908373ffffffffffffffffffffffffffffffffffffffff1602179055508173ffffffffffffffffffffffffffffffffffffffff168173ffffffffffffffffffffffffffffffffffffffff167f8be0079c531659141344cd1fd0a4f28419497f9722a3daafe3b4186f6b6457e060405160405180910390a35050565b60405180604001604052806000815260200160006001811115610976577f4e487b7100000000000000000000000000000000000000000000000000000000600052602160045260246000fd5b81525090565b60008135905061098b81610da4565b92915050565b6000813590506109a081610dbb565b92915050565b6000813590506109b581610dcb565b92915050565b6000602082840312156109cd57600080fd5b60006109db8482850161097c565b91505092915050565b600080604083850312156109f757600080fd5b6000610a05858286016109a6565b9250506020610a1685828601610991565b9150509250929050565b610a2981610c4d565b82525050565b610a3881610c5f565b82525050565b610a4781610ca8565b82525050565b6000610a5a602683610b8c565b9150610a6582610d18565b604082019050919050565b6000610a7d602083610b8c565b9150610a8882610d67565b602082019050919050565b604082016000820151610aa96000850182610ac2565b506020820151610abc6020850182610a3e565b50505050565b610acb81610c9e565b82525050565b610ada81610c9e565b82525050565b6000602082019050610af56000830184610a20565b92915050565b6000602082019050610b106000830184610a2f565b92915050565b60006020820190508181036000830152610b2f81610a4d565b9050919050565b60006020820190508181036000830152610b4f81610a70565b9050919050565b6000604082019050610b6b6000830184610a93565b92915050565b6000602082019050610b866000830184610ad1565b92915050565b600082825260208201905092915050565b6000610ba882610c9e565b9150610bb383610c9e565b9250827fffffffffffffffffffffffffffffffffffffffffffffffffffffffffffffffff03821115610be857610be7610cba565b5b828201905092915050565b6000610bfe82610c9e565b9150610c0983610c9e565b9250817fffffffffffffffffffffffffffffffffffffffffffffffffffffffffffffffff0483118215151615610c4257610c41610cba565b5b828202905092915050565b6000610c5882610c7e565b9050919050565b60008115159050919050565b6000819050610c7982610d90565b919050565b600073ffffffffffffffffffffffffffffffffffffffff82169050919050565b6000819050919050565b6000610cb382610c6b565b9050919050565b7f4e487b7100000000000000000000000000000000000000000000000000000000600052601160045260246000fd5b7f4e487b7100000000000000000000000000000000000000000000000000000000600052602160045260246000fd5b7f4f776e61626c653a206e6577206f776e657220697320746865207a65726f206160008201527f6464726573730000000000000000000000000000000000000000000000000000602082015250565b7f4f776e61626c653a2063616c6c6572206973206e6f7420746865206f776e6572600082015250565b60028110610da157610da0610ce9565b5b50565b610dad81610c4d565b8114610db857600080fd5b50565b60028110610dc857600080fd5b50565b610dd481610c9e565b8114610ddf57600080fd5b5056fea2646970667358221220d36f80e10d5afca527e8dc8dd865578560258986884daaf736c6ca6a7038e5de64736f6c63430008020033",
  "immutableReferences": {},
  "source": "// SPDX-License-Identifier: MIT\r\npragma solidity >=0.4.22 <0.9.0;\r\n\r\nimport \"@openzeppelin/contracts/access/Ownable.sol\";\r\n\r\ncontract InsuranceStore is Ownable {\r\n    enum InsuranceType { CLASSIC, PREMIUM }\r\n\r\n    uint basicDaylyInsurancePrice = 0.01 ether;\r\n    uint basicDaylyInsurancePremiumPrice = 0.015 ether;\r\n\r\n    struct Insurance {\r\n        uint expiryDate;\r\n        InsuranceType insuranceType;\r\n    }\r\n\r\n    mapping(address => Insurance) personToInsurance;\r\n\r\n    function buyInsurance(uint _days, InsuranceType _type) external payable {\r\n        require(_days > 0);\r\n\r\n        if (_type == InsuranceType.CLASSIC) {\r\n            require(_days * basicDaylyInsurancePrice == msg.value);\r\n        } else if (_type == InsuranceType.PREMIUM) {\r\n            require(_days * basicDaylyInsurancePremiumPrice == msg.value);\r\n        }\r\n        \r\n        uint expiry = block.timestamp + (_days * 1 days);\r\n\r\n        if (_type == InsuranceType.PREMIUM && _days >= 7) {\r\n            expiry += 1 days;\r\n        }\r\n\r\n        personToInsurance[msg.sender] = Insurance(expiry, _type);\r\n    }\r\n\r\n    function withdraw() external onlyOwner {\r\n        address payable _owner = payable(owner());\r\n        _owner.transfer(address(this).balance);\r\n    }\r\n\r\n    function getInsuranceInfo(address _person) external view returns(Insurance memory) {\r\n        return personToInsurance[_person];\r\n    }\r\n\r\n    function checkInsurance(address _person) external view returns(bool) {\r\n        return personToInsurance[_person].expiryDate > block.timestamp;\r\n    }\r\n\r\n    function getBalance() external view returns(uint) {\r\n        return address(this).balance;\r\n    }\r\n}",
  "sourcePath": "C:\\Users\\Volodymyr\\Documents\\dTourist\\contracts\\Insurance.sol",
  "compiler": {
    "name": "solc",
    "version": "0.8.2+commit.661d1103.Emscripten.clang"
  },
  "schemaVersion": "3.4.3",
  "updatedAt": "2022-02-01T22:18:17.569Z",
  "networkType": "ethereum",
  "devdoc": {
    "kind": "dev",
    "methods": {
      "owner()": {
        "details": "Returns the address of the current owner."
      },
      "renounceOwnership()": {
        "details": "Leaves the contract without owner. It will not be possible to call `onlyOwner` functions anymore. Can only be called by the current owner. NOTE: Renouncing ownership will leave the contract without an owner, thereby removing any functionality that is only available to the owner."
      },
      "transferOwnership(address)": {
        "details": "Transfers ownership of the contract to a new account (`newOwner`). Can only be called by the current owner."
      }
    },
    "version": 1
  },
  "userdoc": {
    "kind": "user",
    "methods": {},
    "version": 1
  }
}