{
  "contractName": "InsuranceStore",
  "abi": [
    {
      "inputs": [],
      "stateMutability": "nonpayable",
      "type": "constructor"
    },
    {
      "anonymous": false,
      "inputs": [
        {
          "indexed": false,
          "internalType": "enum InsuranceStore.InsuranceType",
          "name": "insuranceType",
          "type": "uint8"
        },
        {
          "indexed": false,
          "internalType": "uint256",
          "name": "newPrice",
          "type": "uint256"
        }
      ],
      "name": "InsurancePriceChanged",
      "type": "event"
    },
    {
      "anonymous": false,
      "inputs": [
        {
          "indexed": true,
          "internalType": "address",
          "name": "previousOwner",
          "type": "address"
        },
        {
          "indexed": true,
          "internalType": "address",
          "name": "newOwner",
          "type": "address"
        }
      ],
      "name": "OwnershipTransferred",
      "type": "event"
    },
    {
      "inputs": [],
      "name": "owner",
      "outputs": [
        {
          "internalType": "address",
          "name": "",
          "type": "address"
        }
      ],
      "stateMutability": "view",
      "type": "function",
      "constant": true
    },
    {
      "inputs": [],
      "name": "renounceOwnership",
      "outputs": [],
      "stateMutability": "nonpayable",
      "type": "function"
    },
    {
      "inputs": [
        {
          "internalType": "address",
          "name": "newOwner",
          "type": "address"
        }
      ],
      "name": "transferOwnership",
      "outputs": [],
      "stateMutability": "nonpayable",
      "type": "function"
    },
    {
      "inputs": [
        {
          "internalType": "uint256",
          "name": "_days",
          "type": "uint256"
        },
        {
          "internalType": "enum InsuranceStore.InsuranceType",
          "name": "_type",
          "type": "uint8"
        }
      ],
      "name": "buyInsurance",
      "outputs": [],
      "stateMutability": "payable",
      "type": "function",
      "payable": true
    },
    {
      "inputs": [],
      "name": "withdraw",
      "outputs": [],
      "stateMutability": "nonpayable",
      "type": "function"
    },
    {
      "inputs": [
        {
          "internalType": "uint256",
          "name": "_insuranceType",
          "type": "uint256"
        },
        {
          "internalType": "uint256",
          "name": "newPrice",
          "type": "uint256"
        }
      ],
      "name": "setInsurancePrice",
      "outputs": [],
      "stateMutability": "nonpayable",
      "type": "function"
    },
    {
      "inputs": [
        {
          "internalType": "uint256",
          "name": "_insuranceType",
          "type": "uint256"
        }
      ],
      "name": "getInsurancePrice",
      "outputs": [
        {
          "internalType": "uint256",
          "name": "",
          "type": "uint256"
        }
      ],
      "stateMutability": "view",
      "type": "function",
      "constant": true
    },
    {
      "inputs": [
        {
          "internalType": "address",
          "name": "_person",
          "type": "address"
        }
      ],
      "name": "getInsuranceInfo",
      "outputs": [
        {
          "components": [
            {
              "internalType": "uint256",
              "name": "expiryDate",
              "type": "uint256"
            },
            {
              "internalType": "enum InsuranceStore.InsuranceType",
              "name": "insuranceType",
              "type": "uint8"
            }
          ],
          "internalType": "struct InsuranceStore.Insurance",
          "name": "",
          "type": "tuple"
        }
      ],
      "stateMutability": "view",
      "type": "function",
      "constant": true
    },
    {
      "inputs": [
        {
          "internalType": "address",
          "name": "_person",
          "type": "address"
        }
      ],
      "name": "checkInsurance",
      "outputs": [
        {
          "internalType": "bool",
          "name": "",
          "type": "bool"
        }
      ],
      "stateMutability": "view",
      "type": "function",
      "constant": true
    }
  ],
  "bytecode": "0x608060405234801561001057600080fd5b5061002d61002261015060201b60201c565b61015860201b60201c565b662386f26fc1000060026000806001811115610072577f4e487b7100000000000000000000000000000000000000000000000000000000600052602160045260246000fd5b60018111156100aa577f4e487b7100000000000000000000000000000000000000000000000000000000600052602160045260246000fd5b81526020019081526020016000208190555066354a6ba7a1800060026000600180811115610101577f4e487b7100000000000000000000000000000000000000000000000000000000600052602160045260246000fd5b6001811115610139577f4e487b7100000000000000000000000000000000000000000000000000000000600052602160045260246000fd5b81526020019081526020016000208190555061021c565b600033905090565b60008060009054906101000a900473ffffffffffffffffffffffffffffffffffffffff169050816000806101000a81548173ffffffffffffffffffffffffffffffffffffffff021916908373ffffffffffffffffffffffffffffffffffffffff1602179055508173ffffffffffffffffffffffffffffffffffffffff168173ffffffffffffffffffffffffffffffffffffffff167f8be0079c531659141344cd1fd0a4f28419497f9722a3daafe3b4186f6b6457e060405160405180910390a35050565b6112788061022b6000396000f3fe6080604052600436106100865760003560e01c80638da5cb5b116100595780638da5cb5b1461011f578063a82401ad1461014a578063bb215ef114610187578063f2fde38b146101c4578063f51e6b37146101ed57610086565b80633ccfd60b1461008b5780633f1c55fc146100a2578063715018a6146100df5780637dacc907146100f6575b600080fd5b34801561009757600080fd5b506100a0610209565b005b3480156100ae57600080fd5b506100c960048036038101906100c49190610d7e565b6102db565b6040516100d69190610fb6565b60405180910390f35b3480156100eb57600080fd5b506100f46103c5565b005b34801561010257600080fd5b5061011d60048036038101906101189190610e0c565b61044d565b005b34801561012b57600080fd5b5061013461060b565b6040516101419190610f17565b60405180910390f35b34801561015657600080fd5b50610171600480360381019061016c9190610da7565b610634565b60405161017e9190610fd1565b60405180910390f35b34801561019357600080fd5b506101ae60048036038101906101a99190610d7e565b6106f9565b6040516101bb9190610f32565b60405180910390f35b3480156101d057600080fd5b506101eb60048036038101906101e69190610d7e565b610747565b005b61020760048036038101906102029190610dd0565b61083f565b005b610211610c21565b73ffffffffffffffffffffffffffffffffffffffff1661022f61060b565b73ffffffffffffffffffffffffffffffffffffffff1614610285576040517f08c379a000000000000000000000000000000000000000000000000000000000815260040161027c90610f96565b60405180910390fd5b600061028f61060b565b90508073ffffffffffffffffffffffffffffffffffffffff166108fc479081150290604051600060405180830381858888f193505050501580156102d7573d6000803e3d6000fd5b5050565b6102e3610ced565b600160008373ffffffffffffffffffffffffffffffffffffffff1673ffffffffffffffffffffffffffffffffffffffff168152602001908152602001600020604051806040016040529081600082015481526020016001820160009054906101000a900460ff166001811115610382577f4e487b7100000000000000000000000000000000000000000000000000000000600052602160045260246000fd5b60018111156103ba577f4e487b7100000000000000000000000000000000000000000000000000000000600052602160045260246000fd5b815250509050919050565b6103cd610c21565b73ffffffffffffffffffffffffffffffffffffffff166103eb61060b565b73ffffffffffffffffffffffffffffffffffffffff1614610441576040517f08c379a000000000000000000000000000000000000000000000000000000000815260040161043890610f96565b60405180910390fd5b61044b6000610c29565b565b610455610c21565b73ffffffffffffffffffffffffffffffffffffffff1661047361060b565b73ffffffffffffffffffffffffffffffffffffffff16146104c9576040517f08c379a00000000000000000000000000000000000000000000000000000000081526004016104c090610f96565b60405180910390fd5b600081116104d657600080fd5b8060026000846001811115610514577f4e487b7100000000000000000000000000000000000000000000000000000000600052602160045260246000fd5b600181111561054c577f4e487b7100000000000000000000000000000000000000000000000000000000600052602160045260246000fd5b6001811115610584577f4e487b7100000000000000000000000000000000000000000000000000000000600052602160045260246000fd5b8152602001908152602001600020819055507f18a79220c62abd52aacd2c6e03d309a8d268cdebcc5ba33cc45f32b938a8b3318260018111156105f0577f4e487b7100000000000000000000000000000000000000000000000000000000600052602160045260246000fd5b826040516105ff929190610f4d565b60405180910390a15050565b60008060009054906101000a900473ffffffffffffffffffffffffffffffffffffffff16905090565b600060026000836001811115610673577f4e487b7100000000000000000000000000000000000000000000000000000000600052602160045260246000fd5b60018111156106ab577f4e487b7100000000000000000000000000000000000000000000000000000000600052602160045260246000fd5b60018111156106e3577f4e487b7100000000000000000000000000000000000000000000000000000000600052602160045260246000fd5b8152602001908152602001600020549050919050565b600042600160008473ffffffffffffffffffffffffffffffffffffffff1673ffffffffffffffffffffffffffffffffffffffff16815260200190815260200160002060000154119050919050565b61074f610c21565b73ffffffffffffffffffffffffffffffffffffffff1661076d61060b565b73ffffffffffffffffffffffffffffffffffffffff16146107c3576040517f08c379a00000000000000000000000000000000000000000000000000000000081526004016107ba90610f96565b60405180910390fd5b600073ffffffffffffffffffffffffffffffffffffffff168173ffffffffffffffffffffffffffffffffffffffff161415610833576040517f08c379a000000000000000000000000000000000000000000000000000000000815260040161082a90610f76565b60405180910390fd5b61083c81610c29565b50565b6000821161084c57600080fd5b60006001811115610886577f4e487b7100000000000000000000000000000000000000000000000000000000600052602160045260246000fd5b8160018111156108bf577f4e487b7100000000000000000000000000000000000000000000000000000000600052602160045260246000fd5b1415610964573460026000806001811115610903577f4e487b7100000000000000000000000000000000000000000000000000000000600052602160045260246000fd5b600181111561093b577f4e487b7100000000000000000000000000000000000000000000000000000000600052602160045260246000fd5b815260200190815260200160002054836109559190611053565b1461095f57600080fd5b610a78565b60018081111561099d577f4e487b7100000000000000000000000000000000000000000000000000000000600052602160045260246000fd5b8160018111156109d6577f4e487b7100000000000000000000000000000000000000000000000000000000600052602160045260246000fd5b1415610a77573460026000600180811115610a1a577f4e487b7100000000000000000000000000000000000000000000000000000000600052602160045260246000fd5b6001811115610a52577f4e487b7100000000000000000000000000000000000000000000000000000000600052602160045260246000fd5b81526020019081526020016000205483610a6c9190611053565b14610a7657600080fd5b5b5b60006201518083610a899190611053565b42610a949190610ffd565b9050600180811115610acf577f4e487b7100000000000000000000000000000000000000000000000000000000600052602160045260246000fd5b826001811115610b08577f4e487b7100000000000000000000000000000000000000000000000000000000600052602160045260246000fd5b148015610b16575060078310155b15610b2d576201518081610b2a9190610ffd565b90505b6040518060400160405280828152602001836001811115610b77577f4e487b7100000000000000000000000000000000000000000000000000000000600052602160045260246000fd5b815250600160003373ffffffffffffffffffffffffffffffffffffffff1673ffffffffffffffffffffffffffffffffffffffff1681526020019081526020016000206000820151816000015560208201518160010160006101000a81548160ff02191690836001811115610c14577f4e487b7100000000000000000000000000000000000000000000000000000000600052602160045260246000fd5b0217905550905050505050565b600033905090565b60008060009054906101000a900473ffffffffffffffffffffffffffffffffffffffff169050816000806101000a81548173ffffffffffffffffffffffffffffffffffffffff021916908373ffffffffffffffffffffffffffffffffffffffff1602179055508173ffffffffffffffffffffffffffffffffffffffff168173ffffffffffffffffffffffffffffffffffffffff167f8be0079c531659141344cd1fd0a4f28419497f9722a3daafe3b4186f6b6457e060405160405180910390a35050565b60405180604001604052806000815260200160006001811115610d39577f4e487b7100000000000000000000000000000000000000000000000000000000600052602160045260246000fd5b81525090565b600081359050610d4e81611204565b92915050565b600081359050610d638161121b565b92915050565b600081359050610d788161122b565b92915050565b600060208284031215610d9057600080fd5b6000610d9e84828501610d3f565b91505092915050565b600060208284031215610db957600080fd5b6000610dc784828501610d69565b91505092915050565b60008060408385031215610de357600080fd5b6000610df185828601610d69565b9250506020610e0285828601610d54565b9150509250929050565b60008060408385031215610e1f57600080fd5b6000610e2d85828601610d69565b9250506020610e3e85828601610d69565b9150509250929050565b610e51816110ad565b82525050565b610e60816110bf565b82525050565b610e6f81611108565b82525050565b610e7e81611108565b82525050565b6000610e91602683610fec565b9150610e9c82611178565b604082019050919050565b6000610eb4602083610fec565b9150610ebf826111c7565b602082019050919050565b604082016000820151610ee06000850182610ef9565b506020820151610ef36020850182610e66565b50505050565b610f02816110fe565b82525050565b610f11816110fe565b82525050565b6000602082019050610f2c6000830184610e48565b92915050565b6000602082019050610f476000830184610e57565b92915050565b6000604082019050610f626000830185610e75565b610f6f6020830184610f08565b9392505050565b60006020820190508181036000830152610f8f81610e84565b9050919050565b60006020820190508181036000830152610faf81610ea7565b9050919050565b6000604082019050610fcb6000830184610eca565b92915050565b6000602082019050610fe66000830184610f08565b92915050565b600082825260208201905092915050565b6000611008826110fe565b9150611013836110fe565b9250827fffffffffffffffffffffffffffffffffffffffffffffffffffffffffffffffff038211156110485761104761111a565b5b828201905092915050565b600061105e826110fe565b9150611069836110fe565b9250817fffffffffffffffffffffffffffffffffffffffffffffffffffffffffffffffff04831182151516156110a2576110a161111a565b5b828202905092915050565b60006110b8826110de565b9050919050565b60008115159050919050565b60008190506110d9826111f0565b919050565b600073ffffffffffffffffffffffffffffffffffffffff82169050919050565b6000819050919050565b6000611113826110cb565b9050919050565b7f4e487b7100000000000000000000000000000000000000000000000000000000600052601160045260246000fd5b7f4e487b7100000000000000000000000000000000000000000000000000000000600052602160045260246000fd5b7f4f776e61626c653a206e6577206f776e657220697320746865207a65726f206160008201527f6464726573730000000000000000000000000000000000000000000000000000602082015250565b7f4f776e61626c653a2063616c6c6572206973206e6f7420746865206f776e6572600082015250565b6002811061120157611200611149565b5b50565b61120d816110ad565b811461121857600080fd5b50565b6002811061122857600080fd5b50565b611234816110fe565b811461123f57600080fd5b5056fea2646970667358221220c0840302c4923f13ac5e382f44ae01899ae71bc07c7426b69495f36233dcf39064736f6c63430008020033",
  "immutableReferences": {},
  "source": "// SPDX-License-Identifier: MIT\r\npragma solidity >=0.4.22 <0.9.0;\r\n\r\nimport \"@openzeppelin/contracts/access/Ownable.sol\";\r\n\r\ncontract InsuranceStore is Ownable {\r\n    event InsurancePriceChanged(InsuranceType insuranceType, uint newPrice);\r\n\r\n    enum InsuranceType { CLASSIC, PREMIUM }\r\n\r\n    struct Insurance {\r\n        uint expiryDate;\r\n        InsuranceType insuranceType;\r\n    }\r\n\r\n    mapping(address => Insurance) personToInsurance;\r\n    mapping(InsuranceType => uint) insuranceTypeToPrice;\r\n\r\n    constructor() {\r\n        insuranceTypeToPrice[InsuranceType.CLASSIC] = 0.01 ether;\r\n        insuranceTypeToPrice[InsuranceType.PREMIUM] = 0.015 ether;\r\n    }\r\n\r\n    function buyInsurance(uint _days, InsuranceType _type) external payable {\r\n        require(_days > 0);\r\n\r\n        if (_type == InsuranceType.CLASSIC) {\r\n            require(_days * insuranceTypeToPrice[InsuranceType.CLASSIC] == msg.value);\r\n        } else if (_type == InsuranceType.PREMIUM) {\r\n            require(_days * insuranceTypeToPrice[InsuranceType.PREMIUM] == msg.value);\r\n        }\r\n        \r\n        uint expiry = block.timestamp + (_days * 1 days);\r\n\r\n        if (_type == InsuranceType.PREMIUM && _days >= 7) {\r\n            expiry += 1 days;\r\n        }\r\n\r\n        personToInsurance[msg.sender] = Insurance(expiry, _type);\r\n    }\r\n\r\n    function withdraw() external onlyOwner {\r\n        address payable _owner = payable(owner());\r\n        _owner.transfer(address(this).balance);\r\n    }\r\n\r\n    function setInsurancePrice(uint _insuranceType, uint newPrice) external onlyOwner {\r\n        require(newPrice > 0);\r\n        \r\n        insuranceTypeToPrice[InsuranceType(_insuranceType)] = newPrice;\r\n\r\n        emit InsurancePriceChanged(InsuranceType(_insuranceType), newPrice);\r\n    }\r\n\r\n    function getInsurancePrice(uint _insuranceType) external view returns(uint) {\r\n        return insuranceTypeToPrice[InsuranceType(_insuranceType)];\r\n    }\r\n\r\n    function getInsuranceInfo(address _person) external view returns(Insurance memory) {\r\n        return personToInsurance[_person];\r\n    }\r\n\r\n    function checkInsurance(address _person) external view returns(bool) {\r\n        return personToInsurance[_person].expiryDate > block.timestamp;\r\n    }\r\n}",
  "sourcePath": "C:\\Users\\Volodymyr\\Documents\\dTourist\\contracts\\Insurance.sol",
  "compiler": {
    "name": "solc",
    "version": "0.8.2+commit.661d1103.Emscripten.clang"
  },
  "schemaVersion": "3.4.3",
  "updatedAt": "2022-02-08T22:20:37.017Z",
  "networkType": "ethereum",
  "devdoc": {
    "kind": "dev",
    "methods": {
      "owner()": {
        "details": "Returns the address of the current owner."
      },
      "renounceOwnership()": {
        "details": "Leaves the contract without owner. It will not be possible to call `onlyOwner` functions anymore. Can only be called by the current owner. NOTE: Renouncing ownership will leave the contract without an owner, thereby removing any functionality that is only available to the owner."
      },
      "transferOwnership(address)": {
        "details": "Transfers ownership of the contract to a new account (`newOwner`). Can only be called by the current owner."
      }
    },
    "version": 1
  },
  "userdoc": {
    "kind": "user",
    "methods": {},
    "version": 1
  }
}