{
  "contractName": "Customs",
  "abi": [
    {
      "constant": true,
      "inputs": [
        {
          "internalType": "address",
          "name": "",
          "type": "address"
        }
      ],
      "name": "addressToCountry",
      "outputs": [
        {
          "internalType": "string",
          "name": "",
          "type": "string"
        }
      ],
      "payable": false,
      "stateMutability": "view",
      "type": "function"
    },
    {
      "constant": true,
      "inputs": [
        {
          "internalType": "address",
          "name": "",
          "type": "address"
        },
        {
          "internalType": "uint256",
          "name": "",
          "type": "uint256"
        }
      ],
      "name": "personToHistory",
      "outputs": [
        {
          "internalType": "address",
          "name": "from",
          "type": "address"
        },
        {
          "internalType": "address",
          "name": "to",
          "type": "address"
        },
        {
          "internalType": "uint256",
          "name": "date",
          "type": "uint256"
        },
        {
          "internalType": "bool",
          "name": "success",
          "type": "bool"
        }
      ],
      "payable": false,
      "stateMutability": "view",
      "type": "function"
    },
    {
      "constant": false,
      "inputs": [
        {
          "internalType": "address",
          "name": "_from",
          "type": "address"
        },
        {
          "internalType": "address",
          "name": "_to",
          "type": "address"
        },
        {
          "internalType": "uint256",
          "name": "_date",
          "type": "uint256"
        }
      ],
      "name": "crossBorder",
      "outputs": [],
      "payable": false,
      "stateMutability": "nonpayable",
      "type": "function"
    },
    {
      "constant": true,
      "inputs": [
        {
          "internalType": "address",
          "name": "userAddress",
          "type": "address"
        }
      ],
      "name": "getValueAtHistoryMapping",
      "outputs": [
        {
          "components": [
            {
              "internalType": "address",
              "name": "from",
              "type": "address"
            },
            {
              "internalType": "address",
              "name": "to",
              "type": "address"
            },
            {
              "internalType": "uint256",
              "name": "date",
              "type": "uint256"
            },
            {
              "internalType": "bool",
              "name": "success",
              "type": "bool"
            }
          ],
          "internalType": "struct Customs.Trip[]",
          "name": "",
          "type": "tuple[]"
        }
      ],
      "payable": false,
      "stateMutability": "view",
      "type": "function"
    }
  ],
  "bytecode": "0x608060405234801561001057600080fd5b50610945806100206000396000f3fe608060405234801561001057600080fd5b506004361061004c5760003560e01c806312a13531146100515780634b8957041461006d578063ca6ad1421461009d578063f66c6786146100d0575b600080fd5b61006b60048036036100669190810190610581565b610100565b005b61008760048036036100829190810190610558565b610279565b60405161009491906107af565b60405180910390f35b6100b760048036036100b291908101906105d0565b6103e7565b6040516100c7949392919061076a565b60405180910390f35b6100ea60048036036100e59190810190610558565b61047e565b6040516100f791906107d1565b60405180910390f35b6000803373ffffffffffffffffffffffffffffffffffffffff1673ffffffffffffffffffffffffffffffffffffffff16815260200190815260200160002060405180608001604052808573ffffffffffffffffffffffffffffffffffffffff1681526020018473ffffffffffffffffffffffffffffffffffffffff168152602001838152602001600115158152509080600181540180825580915050906001820390600052602060002090600402016000909192909190915060008201518160000160006101000a81548173ffffffffffffffffffffffffffffffffffffffff021916908373ffffffffffffffffffffffffffffffffffffffff16021790555060208201518160010160006101000a81548173ffffffffffffffffffffffffffffffffffffffff021916908373ffffffffffffffffffffffffffffffffffffffff1602179055506040820151816002015560608201518160030160006101000a81548160ff021916908315150217905550505050505050565b60606000808373ffffffffffffffffffffffffffffffffffffffff1673ffffffffffffffffffffffffffffffffffffffff168152602001908152602001600020805480602002602001604051908101604052809291908181526020016000905b828210156103dc57838290600052602060002090600402016040518060800160405290816000820160009054906101000a900473ffffffffffffffffffffffffffffffffffffffff1673ffffffffffffffffffffffffffffffffffffffff1673ffffffffffffffffffffffffffffffffffffffff1681526020016001820160009054906101000a900473ffffffffffffffffffffffffffffffffffffffff1673ffffffffffffffffffffffffffffffffffffffff1673ffffffffffffffffffffffffffffffffffffffff168152602001600282015481526020016003820160009054906101000a900460ff161515151581525050815260200190600101906102d9565b505050509050919050565b6000602052816000526040600020818154811061040057fe5b9060005260206000209060040201600091509150508060000160009054906101000a900473ffffffffffffffffffffffffffffffffffffffff16908060010160009054906101000a900473ffffffffffffffffffffffffffffffffffffffff16908060020154908060030160009054906101000a900460ff16905084565b60016020528060005260406000206000915090508054600181600116156101000203166002900480601f0160208091040260200160405190810160405280929190818152602001828054600181600116156101000203166002900480156105265780601f106104fb57610100808354040283529160200191610526565b820191906000526020600020905b81548152906001019060200180831161050957829003601f168201915b505050505081565b60008135905061053d816108d4565b92915050565b600081359050610552816108eb565b92915050565b60006020828403121561056a57600080fd5b60006105788482850161052e565b91505092915050565b60008060006060848603121561059657600080fd5b60006105a48682870161052e565b93505060206105b58682870161052e565b92505060406105c686828701610543565b9150509250925092565b600080604083850312156105e357600080fd5b60006105f18582860161052e565b925050602061060285828601610543565b9150509250929050565b600061061883836106f7565b60808301905092915050565b61062d81610848565b82525050565b61063c81610848565b82525050565b600061064d82610803565b6106578185610826565b9350610662836107f3565b8060005b8381101561069357815161067a888261060c565b975061068583610819565b925050600181019050610666565b5085935050505092915050565b6106a98161085a565b82525050565b6106b88161085a565b82525050565b60006106c98261080e565b6106d38185610837565b93506106e3818560208601610890565b6106ec816108c3565b840191505092915050565b60808201600082015161070d6000850182610624565b5060208201516107206020850182610624565b506040820151610733604085018261074c565b50606082015161074660608501826106a0565b50505050565b61075581610886565b82525050565b61076481610886565b82525050565b600060808201905061077f6000830187610633565b61078c6020830186610633565b610799604083018561075b565b6107a660608301846106af565b95945050505050565b600060208201905081810360008301526107c98184610642565b905092915050565b600060208201905081810360008301526107eb81846106be565b905092915050565b6000819050602082019050919050565b600081519050919050565b600081519050919050565b6000602082019050919050565b600082825260208201905092915050565b600082825260208201905092915050565b600061085382610866565b9050919050565b60008115159050919050565b600073ffffffffffffffffffffffffffffffffffffffff82169050919050565b6000819050919050565b60005b838110156108ae578082015181840152602081019050610893565b838111156108bd576000848401525b50505050565b6000601f19601f8301169050919050565b6108dd81610848565b81146108e857600080fd5b50565b6108f481610886565b81146108ff57600080fd5b5056fea365627a7a723158204f421904ec2ca60ae9ff78d21afac5276d7f37c0ae3cc6a1ff1101f8de4d857b6c6578706572696d656e74616cf564736f6c63430005100040",
  "source": "// SPDX-License-Identifier: MIT\r\npragma experimental ABIEncoderV2;\r\npragma solidity >=0.4.22 <0.9.0;\r\n\r\ncontract Customs {\r\n    mapping (address => Trip[]) public personToHistory;\r\n    mapping (address => string) public addressToCountry;\r\n\r\n    function crossBorder(address _from, address _to, uint256 _date) public {\r\n        personToHistory[msg.sender].push(Trip(_from, _to, _date, true));\r\n    }\r\n\r\n    function getValueAtHistoryMapping(address userAddress)  public  view  returns(Trip[] memory) {\r\n      return personToHistory[userAddress];\r\n    }\r\n\r\n    /*function _isCrossingAllowed(address _user) private pure returns (bool) {\r\n        return true;\r\n    }*/\r\n\r\n    struct Trip {\r\n        address from;\r\n        address to;\r\n        uint256 date;\r\n        bool success;\r\n    }\r\n}",
  "sourcePath": "C:\\Users\\Volodymyr\\Documents\\dTourist\\smart-contracts\\contracts\\Customs.sol",
  "compiler": {
    "name": "solc",
    "version": "0.5.16+commit.9c3226ce.Emscripten.clang"
  },
  "schemaVersion": "3.4.3",
  "updatedAt": "2021-12-15T21:48:02.339Z",
  "networkType": "ethereum",
  "devdoc": {
    "methods": {}
  },
  "userdoc": {
    "methods": {}
  }
}